:020000040000fa
:080000000002040000000000f2
:020000040000fa
:040008007803000079
:020000040000fa
:04000c007803000075
:020000040000fa
:040010007803000071
:020000040000fa
:04001400780300006d
:020000040000fa
:040018007803000069
:020000040000fa
:04001c007803000065
:020000040000fa
:040020007803000061
:020000040000fa
:04002400780300005d
:020000040000fa
:040028007803000059
:020000040000fa
:04002c007803000055
:020000040000fa
:040030007803000051
:020000040000fa
:04003400780300004d
:020000040000fa
:040038007803000049
:020000040000fa
:04003c007803000045
:020000040000fa
:040040007803000041
:020000040000fa
:040044004e9f0100ca
:020000040000fa
:04004800169f0100fe
:020000040000fa
:04004c007803000035
:020000040000fa
:040050007803000031
:020000040000fa
:04005400780300002d
:020000040000fa
:040058007803000029
:020000040000fa
:04005c007803000025
:020000040000fa
:040060007803000021
:020000040000fa
:04006400780300001d
:020000040000fa
:040068007803000019
:020000040000fa
:04006c007803000015
:020000040000fa
:040070007803000011
:020000040000fa
:04007400780300000d
:020000040000fa
:040078007803000009
:020000040000fa
:04007c007803000005
:020000040000fa
:040080007803000001
:020000040000fa
:0400840078030000fd
:020000040000fa
:0400880078030000f9
:020000040000fa
:04008c0078030000f5
:020000040000fa
:0400900078030000f1
:020000040000fa
:0400940078030000ed
:020000040000fa
:0400980078030000e9
:020000040000fa
:04009c0078030000e5
:020000040000fa
:0400a00078030000e1
:020000040000fa
:0400a40078030000dd
:020000040000fa
:0400a80078030000d9
:020000040000fa
:0400ac0078030000d5
:020000040000fa
:0400b00078030000d1
:020000040000fa
:0400b40078030000cd
:020000040000fa
:0400b80078030000c9
:020000040000fa
:0400bc0078030000c5
:020000040000fa
:0400c00078030000c1
:020000040000fa
:0400c40078030000bd
:020000040000fa
:0400c80078030000b9
:020000040000fa
:0400cc0078030000b5
:020000040000fa
:0400d00078030000b1
:020000040000fa
:0400d40078030000ad
:020000040000fa
:0400d80078030000a9
:020000040000fa
:0400dc0078030000a5
:020000040000fa
:0400e00078030000a1
:020000040000fa
:0400e400780300009d
:020000040000fa
:0400e8007803000099
:020000040000fa
:0400ec007803000095
:020000040000fa
:0400f0007803000091
:020000040000fa
:0400f400780300008d
:020000040000fa
:0400f8007803000089
:020000040000fa
:0400fc007803000085
:020000040000fa
:040100007803000080
:020000040000fa
:04010400780300007c
:020000040000fa
:040108007803000078
:020000040000fa
:04010c007803000074
:020000040000fa
:040110007803000070
:020000040000fa
:04011400780300006c
:020000040000fa
:040118007803000068
:020000040000fa
:04011c007803000064
:020000040000fa
:040120007803000060
:020000040000fa
:04012400780300005c
:020000040000fa
:040128007803000058
:020000040000fa
:04012c007803000054
:020000040000fa
:040130007803000050
:020000040000fa
:04013400780300004c
:020000040000fa
:040138007803000048
:020000040000fa
:04013c007803000044
:020000040000fa
:040140007803000040
:020000040000fa
:04014400780300003c
:020000040000fa
:040148007803000038
:020000040000fa
:04014c007803000034
:020000040000fa
:040150007803000030
:020000040000fa
:04015400780300002c
:020000040000fa
:040158007803000028
:020000040000fa
:04015c007803000024
:020000040000fa
:040160007803000020
:020000040000fa
:04016400780300001c
:020000040000fa
:040168007803000018
:020000040000fa
:04016c007803000014
:020000040000fa
:040170007803000010
:020000040000fa
:04017400780300000c
:020000040000fa
:040178007803000008
:020000040000fa
:04017c007803000004
:020000040000fa
:040180007803000000
:020000040000fa
:0401840078030000fc
:020000040000fa
:0401880078030000f8
:020000040000fa
:04018c0078030000f4
:020000040000fa
:0401900078030000f0
:020000040000fa
:0401940078030000ec
:020000040000fa
:0401980078030000e8
:020000040000fa
:04019c0078030000e4
:020000040000fa
:0401a00078030000e0
:020000040000fa
:0401a40078030000dc
:020000040000fa
:0401a80078030000d8
:020000040000fa
:0401ac0078030000d4
:020000040000fa
:0401b00078030000d0
:020000040000fa
:0401b40078030000cc
:020000040000fa
:0401b800e8650000f6
:020000040000fa
:040208007803000077
:020000040000fa
:04020c007803000073
:020000040000fa
:04021000780300006f
:020000040000fa
:04021400780300006b
:020000040000fa
:040218007803000067
:020000040000fa
:04021c007803000063
:020000040000fa
:04022000780300005f
:020000040000fa
:04022400780300005b
:020000040000fa
:040228007803000057
:020000040000fa
:04022c007803000053
:020000040000fa
:04023000780300004f
:020000040000fa
:04023400780300004b
:020000040000fa
:040238007803000047
:020000040000fa
:04023c007803000043
:020000040000fa
:04024000780300003f
:020000040000fa
:04024400780300003b
:020000040000fa
:040248007803000037
:020000040000fa
:04024c007803000033
:020000040000fa
:04025000780300002f
:020000040000fa
:04025400780300002b
:020000040000fa
:040258007803000027
:020000040000fa
:04025c007803000023
:020000040000fa
:04026000780300001f
:020000040000fa
:04026400780300001b
:020000040000fa
:040268007803000017
:020000040000fa
:04026c007803000013
:020000040000fa
:04027000780300000f
:020000040000fa
:04027400780300000b
:020000040000fa
:040278007803000007
:020000040000fa
:04027c007803000003
:020000040000fa
:0402800078030000ff
:020000040000fa
:0402840078030000fb
:020000040000fa
:0402880078030000f7
:020000040000fa
:04028c0078030000f3
:020000040000fa
:0402900078030000ef
:020000040000fa
:0402940078030000eb
:020000040000fa
:0402980078030000e7
:020000040000fa
:04029c0078030000e3
:020000040000fa
:0402a00078030000df
:020000040000fa
:0402a40078030000db
:020000040000fa
:0402a80078030000d7
:020000040000fa
:0402ac0078030000d3
:020000040000fa
:0402b00078030000cf
:020000040000fa
:0402b40078030000cb
:020000040000fa
:0402b80078030000c7
:020000040000fa
:0402bc0078030000c3
:020000040000fa
:0402c00078030000bf
:020000040000fa
:0402c40078030000bb
:020000040000fa
:0402c80078030000b7
:020000040000fa
:0402cc0078030000b3
:020000040000fa
:0402d00078030000af
:020000040000fa
:0402d40078030000ab
:020000040000fa
:0402d80078030000a7
:020000040000fa
:0402dc0078030000a3
:020000040000fa
:0402e000780300009f
:020000040000fa
:0402e400780300009b
:020000040000fa
:0402e8007803000097
:020000040000fa
:0402ec007803000093
:020000040000fa
:0402f000780300008f
:020000040000fa
:0402f400780300008b
:020000040000fa
:0402f8007803000087
:020000040000fa
:0402fc007803000083
:020000040000fa
:04030000780300007e
:020000040000fa
:04030400780300007a
:020000040000fa
:040308007803000076
:020000040000fa
:04030c007803000072
:020000040000fa
:04031000780300006e
:020000040000fa
:04031400780300006a
:020000040000fa
:040318007803000066
:020000040000fa
:04031c007803000062
:020000040000fa
:04032000780300005e
:020000040000fa
:04032400780300005a
:020000040000fa
:040328007803000056
:020000040000fa
:04032c007803000052
:020000040000fa
:04033000780300004e
:020000040000fa
:04033400780300004a
:020000040000fa
:040338007803000046
:020000040000fa
:04033c007803000042
:020000040000fa
:04034000780300003e
:020000040000fa
:04034400780300003a
:020000040000fa
:040348007803000036
:020000040000fa
:04034c007803000032
:020000040000fa
:04035000780300002e
:020000040000fa
:04035400780300002a
:020000040000fa
:040358007803000026
:020000040000fa
:04035c007803000022
:020000040000fa
:04036000780300001e
:020000040000fa
:04036400780300001a
:020000040000fa
:040368007803000016
:020000040000fa
:04036c007803000012
:020000040000fa
:04037000780300000e
:020000040000fa
:04037400780300000a
:020000040000fa
:040378007803000006
:020000040000fa
:04037c007803000002
:020000040000fa
:0403800078030000fe
:020000040000fa
:0403840078030000fa
:020000040000fa
:0403880078030000f6
:020000040000fa
:04038c0078030000f2
:020000040000fa
:0403900078030000ee
:020000040000fa
:0403940078030000ea
:020000040000fa
:0403980078030000e6
:020000040000fa
:04039c0078030000e2
:020000040000fa
:0403a00078030000de
:020000040000fa
:0403a40078030000da
:020000040000fa
:0403a80078030000d6
:020000040000fa
:0403ac0078030000d2
:020000040000fa
:0403b00078030000ce
:020000040000fa
:0403b40078030000ca
:020000040000fa
:0403b80078030000c6
:020000040000fa
:10040000cf8225000eff27000e01880000000000ab
:10041000000020000000e000020032000001200087
:100420002002880014000700010107000000e0001e
:1004300003003a0080692600010020000200370016
:100440000000200001002000810f70000100320038
:1004500014000700000020000000e000020032004d
:1004600000000200000000008c0d020002000000ed
:100470000040da000000fe004440a900c0d227007e
:100480000000e000030032001020200090018800ee
:100490004440a800000006008a1f78008b1f7800e7
:1004a00000000600a1028800800478000000eb0034
:1004b0001f003700e284440054a0b4009905ba003c
:1004c000e284440054a0b4009906ba00e2844400d7
:1004d00054a0b4000006eb00476fde00fd07b20039
:1004e000ae018800636ce10003003a00eaff0700f8
:1004f0000000eb000e003700606ce10008003a00dd
:10050000004deb000a05e800020039003420ec0041
:100510000af0a0008b05e900f9ff3e000400370057
:100520006168e100010032000086eb000b0007006b
:1005300019c7ba001905ba000e04e00003003a001a
:100540000a00e000dbff3a0000000600fe07b200f0
:10055000ae0288008a047800f5ff37000cd0a300b3
:10056000e20f4d001c00390089027800354dba00b9
:100570000a05e800020039003420ec000af0a0006f
:100580008b05e9000f003200254dba000a05e8008e
:10059000020039003420ec000af0a0008b05e900cd
:1005a000080032000c00e0000600320015cdba0051
:1005b0000a05e800020039003420ec000af0a0002f
:1005c0008b05e9008984e80054a0b4000b00e0002a
:1005d000e2ff3a00000006009902ba00055d7800cb
:1005e0008b05e900f7ff3200c82ade00055d7800c0
:1005f0008b05e900f3ff32000c00e000f1ff320050
:1006000019ddba00eeff37003a2e040002000000a8
:10061000542d0400020000000a3104000200000012
:100620008c360400020000002636040002000000a0
:100630007a38040002000000523d0400020000006d
:10064000163d040002000000764304000200000092
:100650004443040002000000284604000200000099
:10066000f645040002000000ba3504000200000054
:10067000f232040002000000043404000200000012
:10068000c443040000000000f83c04000000000027
:10069000ee37040000000000c43104000000000038
:1006a000ba2b0400000000004e28040000000000e7
:1006b0003420040000000000081d040000000000b9
:1006c0004e190400000000009c120400000000000d
:1006d000b0110400000000008811040000000000b8
:1006e0001c11040000000000f410040000000000d1
:1006f0000040da000000fe000a00fa00e20f50009d
:100700001f003e00c0888100e10f5000060032004b
:1007100080232000452320002323200004232000e1
:100720000000e00004003a00802220004522200062
:1007300023222000042220000600280094036300e6
:1007400002003a0007087800140a730013a8a300f7
:1007500001003a0013a0a000020078000500370055
:100760001388a300feff32003102fb00840a7800e8
:100770000000e9000000e000f9ff3a00080037003f
:1007800033002000b3bf9f00c0bf9f00d1bf9f00b8
:10079000e2bf9f006a805700790607006fb9970093
:1007a000020078000080fa0000000600889fbe006a
:1007b00080047800d08881000000e00004003a0046
:1007c0000e0007000084eb000000e0000800350088
:1007d000d88881000900e0000500320009004400cb
:1007e000060007000000e00001003d000084eb006f
:1007f000080078004f04be0000000600800078006a
:100800000100e00003003a00c0112300d0888900f5
:10081000000005000080eb00c2822500828f50009e
:1008200002003e00d18889000000eb0000000600b5
:1008300000000500839f68000100e00002003d0009
:1008400060001000e08018000300e00002003d009e
:1008500060011100e0811900050007004f00e00071
:1008600002003b0060001000e0801800000006005d
:100870006022b800060220000000d0008180d20073
:100880000482d2008582d2000000a0000202520041
:1008900083825a00030031000202420083824a0030
:1008a0000000a1000603e900f3ff3a000000060083
:1008b0000c00fa00889fbe0000047800f0ff2700bb
:1008c000d0bf9f008004eb0099bf9f0088bf9f00ae
:1008d000a8bf9f00200c2000b0bf9f007881570068
:1008e000cfb0970070805700100007000fb8970036
:1008f000094878008fb89700088050004f04be0068
:100900000080fa0000000600d00190000281510032
:100910004240a9000300340010017800014978002a
:100920000208e8000100780000000600f687470092
:10093000889fbe008a9fbe008c9fbe008e1f7800dd
:1009400000057800a1b79f00020778008004eb0043
:1009500090023700afb097008100e800a1b79f0078
:1009600051c2b300814f500003003a00afb097006e
:100970000004eb0011003700ba0090000000fb00fb
:100980000168a300070032000901780080007800a8
:100990000a007800dcff07000000e00005003a00d4
:1009a0007c0237008a00780041030700e10f400015
:1009b000780232008904e8007602370001007800ee
:1009c00031417800d3c2b300834f51000c00320094
:1009d00007003c00edc15100834f51000a00320076
:1009e000ebc14100834f51000d003a000800370071
:1009f00003c3b300834f510009003a0006003700db
:100a00000830a000edff37000800a000ebff370022
:100a10000810a000e9ff37000820a000e7ff37001a
:100a20000818a300010032000800a1000838a30044
:100a3000010032000820a1008200fb000103b10088
:100a4000e98f50000c003e00000178008000eb00b0
:100a50006a08b900b201fb000303b10080804100c5
:100a6000020078009201fb000303b100e98f5100fe
:100a7000f7ff3600060037008000eb00a3c2b3008a
:100a8000834f510002003a00ce0078000000e800d9
:100a90008005eb00e2c2b300904f110009003a005c
:100aa00008e0a00064415100d04f11000300320063
:100ab000000178000102780006003700ce057800ba
:100ac0000000e80000017800090037006a58b9000a
:100ad0008085410002007800b201fb000303b100f1
:100ae000e98f5100f9ff360084007800f5ff3700e8
:100af00032407800a2b79f00c3c6b300834f5000b6
:100b0000250032000f003c0032c6b300824f500077
:100b10008800320004003c000004e00022023200a1
:100b20006b4151000f00370042c6b300824f5000a6
:100b30001700320065414100824f500094003a0096
:100b40001300370032c7b300824f50001b00320041
:100b500007003c0064415100824f500010003200f9
:100b60000241e800824f500089003a000f00370030
:100b700052c7b300824f50008a00320063414100e7
:100b8000824f500082003a00e0df9f0009003700ea
:100b9000e0df9f00850037000840a000d4ff370049
:100ba000e0df9f000860a00080003700e0df9f00ca
:100bb0000850a0000870a0007c003700e0df9f0014
:100bc0004e007800000678000000e00001003a00c6
:100bd0002cf022000c0178000000eb00010037002f
:100be0000000e800e24178000304e000fcff3a0066
:100bf000800678000b00e000030032008d8f550066
:100c0000010031008b0678008005eb008d8f5000cd
:100c1000010036008d855000680464002a003a0007
:100c2000110037003a0090000068a300070032006e
:100c300009017800010220000a00780032ff070055
:100c40000000e00006003a00060037008a00780045
:100c50000002200096020700e10f40000100320070
:100c60008904e8008b05e9000b00e000edff3a0085
:100c70008085eb00140037003a0090000068a30064
:100c8000090032000c007800b000fb00000678007c
:100c9000090178000a0078001bff07000000e0004f
:100ca00008003a00080037008c0078003100fb0093
:100cb000010678008a0078007d020700e10f4000fd
:100cc000010032008904e8000d0078008006e90088
:100cd0000000e000e8ff3a000800e000ad0132004b
:100ce000110037003a0090000068a30007003200ae
:100cf00009017800010220000a00780002ff0700c5
:100d00000000e00006003a00060037008a00780084
:100d10000002200066020700e10f400001003200df
:100d20008904e8008b05e9000b00e000edff3a00c4
:100d3000980137004e017800cf91de00c81ade001e
:100d40004818dd004812de0004027000e4df9f0056
:100d50000848a300080032000404e0000600320046
:100d6000e14f420004003200f4df9f0082e79f0061
:100d70002d00200002003700f2df9f001d00200040
:100d8000e2fd2f000f0141000206e80099ff370045
:100d9000e0df9f00ecfd2f000f0646001d00200045
:100da00094ff3700e0df9f00080cb30008017800d3
:100db000020cb200700064000200e0000d003a0076
:100dc0000000e000020032004e06be0002003700c4
:100dd0004e067800cfe6de00e00f5600e08f5e00a2
:100de0000a003d003800b30060061600e0861e00d1
:100df000060037000000e000020032004e06be0090
:100e0000020037004e0678008006eb000b00e00081
:100e100005003a008c8576000bf0a7008b05ea00f0
:100e20008b05e900cf5dde0088017800030cb2007d
:100e3000e3b79f0000042000808f510023003200a0
:100e400003003c000300e000080032002d003700e2
:100e5000000820006fb29700800f52000d00320092
:100e6000000c2000800f520026003a00a2f0220061
:100e700010c0b30064014100b20f5600a28f5e00a3
:100e80001f0039000040e800ea4f5000f9ff3a0027
:100e90001b00370010c0b300020120000300200037
:100ea000820f5600838f5e0015003900441add0062
:100eb000cc11de00830172004411dd000040e80027
:100ec000e84f5000f6ff3a000d00370010c0b300a5
:100ed0008200200003002000820f5600838f5e00f6
:100ee00007003900431add00cd11de0083017200d6
:100ef0004311dd000040e800eb4f5000f6ff3a00e0
:100f0000e0df9f006fd997000200fb008b0f5000bd
:100f100002003d00ebdf9f0003003700808f55008b
:100f200001003d00800578000100e0000300320070
:100f300063006400010032008100e90008e8a300ba
:100f4000050032008b8f5000020034008b8050006f
:100f5000010037008000eb00efd997000300fb0091
:100f60000002eb00d4b79f00808f500002003400d5
:100f700000805000d0b79f000828a3004000320036
:100f8000610164000818a3000f0032003a009000cd
:100f90000068a30006003200b10220000200e00059
:100fa000010032008180e800090178000d0037005f
:100fb000b00220000200e000010032000080e800e2
:100fc0008a0078000e0037000200e00010003200b6
:100fd0003a0090000068a300070032000901780081
:100fe000010220000a00780047fe07000000e00030
:100ff00006003a00060037008a0078000002200050
:10100000ab010700e10f4000010032008904e80055
:101010005fb097000000e0005a003200bcb79f00ac
:10102000cdb79f00800678003a0090000068a300ca
:101030000700320009017800010320000a0078004f
:1010400031fe07000000e00006003a00060037000d
:101050008a0078000003200095010700e10f40009e
:10106000010032008904e8008d06e900eeff3a0035
:10107000ddb79f003fb69700cfb69700410037001d
:10108000dfb197000300e0001a0032000838a30027
:1010900018003a00bcb79f00cdb79f0083067800c8
:1010a0003a0090000068a3000700320009017800b0
:1010b000010220000a00780013fe07000000e00093
:1010c00006003a00060037008a007800000220007f
:1010d00077010700e10f4000010032008904e800b9
:1010e0008d06e900eeff3a00ddb79f003fb697009e
:1010f000cfb69700610164000818a3000f0032000a
:101100003a0090000068a30006003200b1022000ff
:101110000200e000010032008180e800090178004f
:101120000d003700b00220000200e0000100320094
:101130000080e8008a0078000e0037000200e0001e
:10114000100032003a0090000068a300070032004f
:1011500009017800010220000a007800eafd07007a
:101160000000e00006003a00060037008a00780020
:10117000000220004e010700e10f40000100320094
:101180008904e8000b03e9006330b900000178002e
:10119000b2b79f004233dd00a0f0220000034300fd
:1011a0008e01780093b79f00080778000604780046
:1011b0005c0037008b05e900000420006fb2970047
:1011c000800f52003800320003003c000400e000b1
:1011d000080032003e00370000082000efb0970002
:1011e000808f500020003200000c2000808f5000c3
:1011f00037003a000e48a300100032001802be006b
:101200000401be000c00be00f4b79f0085bf9f0024
:1012100097fd0700e0df9f000000fb00cf80de00ad
:101220007fb297008fba97000401be00e803070061
:101230000006560081865e0007003700180178001e
:10124000110009000286d800a20020001100090048
:101250000280d800e1df9f006fd997000243b00001
:10126000e2df9f001a00370010ef22000e58a300a3
:101270000100320000ee2200a1f0220081005400a3
:101280000c01be008100e900030033008301d1009e
:101290000281d300fbff3700ef006100e0c078005f
:1012a000e1df9f000a0037000c00be00bfb19700cd
:1012b0008301e900030033008100d1000080d300e6
:1012c000fbff3700674060000043b000e0df9f0095
:1012d000ba0090006fda97000400fb000168a300d9
:1012e0000700320009017800800078000a007800c9
:1012f00085fd07000000e00005003a00050037000a
:101300008a007800ea000700e10f40000100320087
:101310008904e8003fb0970063005000b0b79f0019
:10132000640454000b00e000a2ff3a000e047800b1
:101330001fb797000838a30016003200dfb09700ef
:101340000100e00013003400010478003a0090002e
:101350000068a300070032000901780001022000a4
:101360000a00780068fd07000000e00006003a006f
:10137000060037008a00780000022000cc00070039
:10138000e10f4000010032008904e8000804e90090
:10139000eeff3a002fb1970012407800e0df9f0087
:1013a0000004e0006bfd3a00090078004f07780068
:1013b0004f06be004f05be004f04be006f01b100d6
:1013c0000000060003487800000278008100fb005e
:1013d000a3002000110009008300d8008000fd0058
:1013e0008001780000c3b30000e241000104e00086
:1013f0000300320080c0400071fa9f000000060028
:1014000072fa9f000000060080017800638161008d
:10141000d016200010003a004206200011000900fa
:101420008281d80001017800e01620000200e0006f
:1014300009003a00c11220008380400002192000f8
:10144000110009008280d800d01620000100e000c1
:1014500001003a000000e80000000600889fbe007e
:101460001004be00c2032000030020000800be00dc
:101470004503070000858900c20320000300200007
:101480000800be00ebfc07000004be00c203200001
:10149000030020003c03070010858900c2032000e0
:1014a000030020000800be00e2fc07000004be00ac
:1014b00082012000030020003303070020858900fb
:1014c00082012000030020000800be00d9fc0700b4
:1014d0000004be00e4014000720020001100090079
:1014e0008201d8000101780062858900690420002a
:1014f00002003700000454008904e8000900780065
:10150000c1ff0700800f5400faff3d005985890094
:1015100062406000788589008000eb00040037009d
:10152000020454008100e8000080fb000000d100ac
:10153000d2f6220062c17800024170000281fb00f5
:10154000820f5400f6ff3d0041858900600a2300a8
:101550000808e800660050004f04be0000000600c6
:101560000400fa0041fc2f00f28481000191b900cf
:1015700030024100a0824900e4bf9f00f5bf9f00f8
:1015800064805700b5ff07000080fa0000000600e5
:10159000889fbe008a9fbe0000047800680090000b
:1015a0006300b90021f32200cb032300e14d780052
:1015b000008040008b00e800d04878008b80e80075
:1015c000104090008048780009c2b3000100e80094
:1015d00009487800480090006300b90081f42200b7
:1015e000648145006149780000804000e580450045
:1015f000d0487800e6804500104090008048780090
:101600000100e80009487800b8009000894178009e
:1016100009417800630040006aff0700a8009000bd
:10162000a3c3b30002c3b3006d80450065ff07008c
:1016300098009000a3c3b30002c3b30070804500bc
:1016400060ff0700980078008941780002c3b3006a
:10165000738045005bff0700d80090004a06200019
:10166000110009008a00d800f34040008041eb00df
:10167000094178007680450052ff0700d8009000ad
:10168000110009008a00d800a3c0b30002c3b30050
:10169000788045004bff07000b0078004f05be0027
:1016a0004f04be0000000600adff0700b8ff370082
:1016b000889fbe0001047800b80090008084eb0091
:1016c0000118a3003a003200180190000198a3000d
:1016d00002003a000200e00035003a000190a0004c
:1016e0003104980080047800f90fb2000200e00095
:1016f00002003a0028009000000c7800ea8f5400a5
:1017000005003a000178a30003003a008800780041
:10171000d0002000e6ff070018009000d8009000dd
:10172000810f50000b0032000000e8001004980008
:101730001800780009487800000ce80011c0b300d8
:10174000c010230001487800ea8f540018003a00c6
:10175000050037008800780009407800490207003a
:101760008004780012003700380090000088a30041
:101770000f00320018019000a8009000480090006f
:10178000ddfb070098009000810f5000040032003c
:10179000380090000003b300300498008084eb0010
:1017a0000000eb001004980028009000000c780066
:1017b000090078004f04be0000000600889fbe00ac
:1017c0008a9fbe008c9fbe00210b23009285810062
:1017d0000200e0000b003a0064814000928589001d
:1017e000e2858900a1009800d185890021419000ff
:1017f0000204a000a2409800614190000204a000f1
:10180000e2409800670440004244de004244dd00ac
:10181000d4858100c1112300c98225008184540030
:101820002d002000110009008d04d80080067800ea
:101830000886e8000c0646008001eb000200370035
:10184000130020000b027800a44090000108a300c0
:10185000020032000a003700120a780014017800f2
:10186000a24090000108a300fbff32008800420064
:10187000810f5100020039000800e00042003d00e5
:10188000940578000b00a100848f5500edff3e0009
:10189000e18f5100eaff3a008d0f5400020036003c
:1018a000890f5400140039006141b8006148b90043
:1018b000b4ff2f00050020000000520081805a0074
:1018c000800f5100818f59000200350064054400eb
:1018d0000a003700c0112300fa82250000055500d8
:1018e00008054500110009000985d8000980b900e4
:1018f00000057800010037000c0578000a00780028
:10190000aafb0700e10f400005003a00640544000f
:101910000a007800a5fb0700e10f40002b00320011
:10192000e185810080087800e1858100e481400044
:1019300021419000830f5000020032000204a000f9
:10194000010037000204a100a24098006405550080
:101950000a0540000a087800ea858900210b230067
:10196000010d7800e2858100a24090000104a000f2
:1019700021419800a04090000104a100214098005e
:101980008001eb00afff3700d1858900810f510046
:10199000070036001101be00f28589000386890028
:1019a000940878000041eb00d1858100a2409800a6
:1019b000d3858100030a7800a44090000104a000b0
:1019c0002142980064004200010037000000eb0053
:1019d0004f06be004f05be004f04be0000000600cb
:1019e0000000e0000800320064005000d185810052
:1019f000810f500001003100d0858900a040900087
:101a00000104a1002140980000000600889fbe004c
:101a10008a9fbe000004be000900e00007003a00f3
:101a20000000eb000800e0003600320008007800fb
:101a3000ebff07000000eb00320037000800e00079
:101a400003003a00090078005cff07002d00370012
:101a5000640054009005780068f897000008a3001f
:101a60000200320008007800ddff0700090078005e
:101a700052ff0700800478000000eb000900e0003e
:101a800020003200888f54001b00320069bd97008f
:101a90000905550042d5de0088855500c2ddde000f
:101aa0000a0178008b0f5500010036000b01780009
:101ab0004211dd008800780009007800140007005a
:101ac000888f54000e0031004255dd000a85440025
:101ad000880f55000a0036000804550042c4de0095
:101ae0004244dd0008844400f085810001868100c5
:101af000008cbe00020037000800780001003700ab
:101b0000090078004f05be004f04be00000006002b
:101b10008001780002003700b15978000201e90025
:101b20000200e000fcff3a00000006000000fa009e
:101b3000889fbe008a9fbe00000578000fb99700fd
:101b4000f08557002a0037000201e80054c2b300b4
:101b500084cf510025003a00b24278000502fb0014
:101b60000403b1008b80e9000400e00008003a00a3
:101b7000810578009b01780001003700045d780042
:101b8000334278000404e000fcff3a0018003700fc
:101b9000810578009b0178000402420086d422006f
:101ba00006024200060478000a03780094037800d5
:101bb000110009008701d80081017800c403780072
:101bc000110009008701d8008003780000c3b3002a
:101bd00000db4300880f5200f4ff3a008502fb004f
:101be0000503b1000505450001003700035d7800dd
:101bf000924178000304e000d3ff3a00034d7800df
:101c00004f05be004f04be000080fa000000060031
:101c1000889fbe008a9fbe008c1f78000004780059
:101c200082047800030578008100e9000106440081
:101c3000880578000a0137008904e80050c2b30023
:101c4000804f510000013a0039407800a1c5b3002f
:101c5000814f5000e300320028003c00edc05000ee
:101c6000814f50008f00320012003c00ebc050004a
:101c7000814f50005500320007003c00e1bd2200ba
:101c8000824f5000ec00320011c4b300814f50006d
:101c9000da003a004200370081c4b300814f50009f
:101ca0006f0032008140e800814f5000d3003a00bd
:101cb0006d00370071c5b300814f50008e003200b7
:101cc00007003c00e4c05000814f50007d0032000e
:101cd00081c0e800814f5000c8003a007b00370007
:101ce00081c5b300814f5000a90032008140e80057
:101cf000814f5000c1003a00b5003700a1c6b300c3
:101d0000814f5000600032000f003c00e8c05000de
:101d1000814f50002900320004003c008140e9005e
:101d2000814f5000b5003a001900370031c6b300aa
:101d3000814f5000290032008140e800814f50005f
:101d4000ae003a003d00370071c7b300814f50002c
:101d50007800320007003c00eac05000814f50007c
:101d60004d003200e3c04000814f5000a3003a0014
:101d70004e00370081c7b300814f50007100320020
:101d80008140e800814f50009c003a008b003700f2
:101d90006a00900000004000c1c322000300370029
:101da0006a0090000000400041c82200e100780075
:101db000a1003700800478009f0037004a0090009f
:101dc0000000400021cc2200f8ff37004a009000bc
:101dd00000004000c1d22200f4ff3700da0090007a
:101de000c0762000809f40009a1f78001a00900063
:101df000801f7800aa009000811f78003a009000b0
:101e0000801f78004a0090000000400021cc220092
:101e1000e11f78006a00900000004000c1c322006a
:101e2000e11f780070be2200801f7800800523002b
:101e30003eff0700f087570007003700ba00900008
:101e4000811f7800c0bf2200801f7800800523001a
:101e500036ff0700e487570081052300760037002e
:101e60002a00900022003700aa009000c200200043
:101e7000110009008200d8000100e000f0ff3a00e4
:101e800082007800eeff37007a009000801fe800a3
:101e9000f0bf2200ecff37004a009000801fe800ee
:101ea000e8ff37009a009000e5ff37002a00900015
:101eb00011be2200eb0f50005f00340041be220033
:101ec0005d0037009a1f7800deff37007a0090002f
:101ed00072002000110009000200d8000101780002
:101ee000ea009000810f5100010034000000e8007a
:101ef000801f7800d3ff3700fa01900072002000a5
:101f0000110009008201d8008101780000027800e8
:101f1000ea009000e6804000110009008200d8002d
:101f2000818f5100010034000402e800841f780012
:101f3000c4ff3700ea009000811f780020c0220013
:101f4000c1ff3700da009000c0762000809f40007b
:101f50003a009000801f78004a0090000000400086
:101f600021cc2200e11f78006a00900000004000b0
:101f7000c1c32200e11f780050c02200801f7800fa
:101f800080052300e9fe0700ea875700b2ff37000b
:101f90009a1f78009a009000811f78002a00900014
:101fa000801f780030c12200801f78008005230048
:101fb000defe0700e8875700a7ff37005a009000b1
:101fc00042062000110009000200d8009cff3700e3
:101fd000da009000c0762000809f4000c0c122003f
:101fe00099ff37000a08900001be22000000e000bf
:101ff00011003200316a81000f0037008105230093
:1020000050c2b30080487800090078004041780051
:102010008101e800824978008181e8008049eb0075
:102020000204e00063ff3200030037008c8f55008c
:1020300007003200805d7800314078000004e00045
:10204000faff3a00060037008c8f550003003a0073
:10205000804deb000000eb0006003700825d780049
:10206000194178000204e000f3fe3a00824d780046
:10207000088055004f0678004f05be004f04be0093
:10208000000006000200fa00889fbe00a0ff9f002b
:1020900001047800380090000068a30033003a0083
:1020a000e200600005003a000003b300300498002d
:1020b000110498000080eb002e003700d804900037
:1020c0000900e00006003a0012002000e6805700f8
:1020d0004800900088f90700190498002300370091
:1020e000a80090000100e00008003a00f110230071
:1020f00021049800010c7800210020005104980070
:10210000110498000030a0003004980018019000dd
:10211000a80090004800900077f907002800900080
:102120008080eb0011049800aff897000148780018
:10213000000ce8002ff89700ea4f50000b003a001f
:10214000380090000088a3000800320018019000b9
:10215000a80090004800900067f907000000eb001d
:1021600010049800a8009000010c7800aff89700c8
:102170000100fb004f04be000080fa0000000600d2
:1021800000c0da0000000600811f78000100e000b6
:1021900002003d0060001000e08018000300e00035
:1021a00002003d0060011100e081190005000700f8
:1021b0004f00e00002003b0060001000e0801800cb
:1021c00000000600aaf907000400be000000060097
:1021d000020ab900001bb9000200b80081004200e9
:0821e00081004300000006002d
:020000040000fa
:1021e800889fbe000000eb000074890011c0b30096
:1021f80020e822000148780010062d00d07b8900d5
:10220800c81020008913200088017800090178008f
:1022180088007800a00a2000224c0200000000007c
:102228000000e000f8ff32004f04be000000060086
:10223800889fbe000000eb000074890011c0b30045
:1022480020e822000148780010062d00d07b890084
:10225800a8062000491b20008801780009017800a1
:102268008800780090172000224c0200000000002f
:102278000000e000f8ff32000000eb000074890065
:1022880011c0b30020e822000148780010062d0094
:10229800d07b8900c8092000491b200088017800ec
:1022a800090178008800780090172000224c02006d
:1022b800000000000000e000f8ff32000000eb0022
:1022c8000074890011c0b30020e82200014878009a
:1022d80010062d00d07b890098082000f9152000f1
:1022e80088017800090178008800780040122000f1
:1022f800224c0200000000000000e000f8ff32005d
:102308004f04be0000000600889fbe000000eb00de
:102318000074890011c0b30020e822000148780049
:1023280010062d00d07b8900c810200099132000ca
:10233800880178000901780088007800a00a200048
:10234800224c0200000000000000e000f8ff32000c
:102358004f04be0000000600889fbe000000eb008e
:102368000074890021e82200804878000080eb0092
:10237800d07b890060a92d00b44e02000000000047
:1023880078f82e00f9092000080178008900780003
:1023980010032000061c0200020000000000e000fc
:1023a800f9ff32000000eb000074890021e82200e8
:1023b8008048780010062d00d07b890020a92d00c8
:1023c800b44e02000000000038fb2e0089072000f0
:1023d800080178008900780010042000061c02001b
:1023e800020000000000e000f9ff32004f04be00c8
:1023f800000006000000eb00c081890011c0b30096
:10240800e001230001487800607d810000000100a0
:1024180000000600c08181000000e800c08189003a
:10242800e90f5000020036000000eb00c08189006f
:1024380011c0b300e0012300014878000000060045
:10244800c0818900e90f5000020036000000eb004f
:10245800c081890011c0b300e00123000148780061
:1024680000000600a00323001004e000070032006b
:10247800c08181000000400001fc2200610078005a
:1024880000000100a00323000048eb00e001230046
:102498001004e00010003200c081810000004000fc
:1024a800c1fa22006100780000000100c0818100ab
:1024b8000000400001fc2200610078000000e000fc
:1024c8000300320011c0b300a003230001487800c4
:1024d800e00123000048eb0000000600881f780098
:1024e8000004780070072000d07b8900c04b0200f0
:1024f800000000000080eb00d07b89000800e000ad
:1025080005003a0082f72e006000b800061c0200a1
:102518000200000004003700080178006000b800dd
:10252800061c0200020000004f04780000000600ac
:10253800de7102000000000090192000d07b8900a5
:10254800c04b020000000000508181000000e00044
:1025580002003200f00c020000000000c07102000e
:1025680000000000508189000132230051009800ca
:10257800f1012000610098008080eb0021009800a4
:1025880011f020003100980001e62f0001087800c2
:10259800508181000166200011009800416a2200e4
:1025a80041009800e1712d007100980091192000f8
:1025b8000108980021aa2d001108980000818100c7
:1025c8000000e00002003200f00c020000000000f1
:1025d800c07102000000000000818900c15522007e
:1025e800510098005143210061009800318c21006e
:1025f800210098008080eb003100980001e62f0050
:10260800010878000081810071bb21001100980049
:102618000141280041009800e1712d0071009800e7
:102628000106b0000108980061aa2d001108980061
:10263800308181000000e00002003200f00c02004e
:1026480000000000c0710200000000003081890015
:1026580001e62c0051009800f1012000610098006b
:102668008000eb00210098008080eb00310098008a
:1026780001087800308181001100980001802f0046
:1026880041009800e1712d00710098000106b0002a
:1026980001089800a1a92d0011089800b0818100b7
:1026a8000000e00002003200f00c02000000000010
:1026b800c071020000000000b08189009101200073
:1026c80051009800524321006200980002fe2f003a
:1026d800220098000081eb00320098000008eb000f
:1026e800b081810072bb210012009800410098005f
:1026f800e1712d0071009800310120000108980057
:10270800e1a92d00110898005781810006552f0076
:102718008501240004042000530c200082022000bc
:10272800c10420009013200064450200020000004c
:102738000000e00002003a0068ff0700ffff3700d2
:102748005781810026552f0005012400040420002c
:102758000313200092022000e10c2000a0132000a7
:1027680064450200020000000000e00002003a0098
:102778005aff0700ffff37005781810046552f0099
:102788000501240014022000330a2000a2002000c2
:10279800b1042000b01320006445020002000000cc
:1027a8000000e00002003a004cff0700ffff37007e
:1027b8005781810016562f0085012400140220003d
:1027c800a30e2000a2002000a10a2000c0132000b0
:1027d80064450200020000000000e00002003a0028
:1027e8003eff0700ffff37005781810036562f0054
:1027f8008501240024022000a3192000b200200033
:1028080091142000d013200064450200020000004b
:102818000000e00002003a0030ff0700ffff370029
:102828005781810056562f0085012400f4032000ab
:10283800a31920008202200051152000e013200077
:1028480064450200020000000000e00002003a00b7
:1028580022ff0700ffff37005781810076562f00bf
:102868008501240014022000f3122000a200200099
:10287800010f2000f0132000644502000200000050
:102888000000e00002003a0014ff0700ffff3700d5
:102898002030f800a7aa2d0016c0b30005002400b8
:1028a8007403200053042000b200200071002000af
:1028b80000142000b4470200020000008f87e900de
:1028c8000000e00002003a0004ff0700ffff3700a5
:1028d8002030f80067ab2d0016c0b30005002400b7
:1028e80094032000831d200052002000411a20007c
:1028f80010142000b4470200020000008f87e9008e
:102908000000e00002003a00f4fe0700ffff370075
:1029180057818100d6562f0085012400a405200088
:102928007306200012042000310320002014200028
:1029380064450200020000000000e00002003a00c6
:10294800e6fe0700ffff37005781810056572f002a
:1029580085012400a4052000b309200012042000ea
:1029680071062000301420006445020002000000b7
:102978000000e00002003a00d8fe0700ffff370021
:1029880057818100d6572f0085012400a405200017
:10299800f30c200012042000b1092000401420008c
:1029a80064450200020000000000e00002003a0056
:1029b800cafe0700ffff37005781810056582f00d5
:1029c80005012400840c200063062000f20a200080
:1029d800410020005014200064450200020000005d
:1029e8000000e00002003a00bcfe0700ffff3700cd
:1029f8002630f80040592f00801f78008003eb0034
:102a0800060024008002eb00e4102000f31d2000e3
:102a1800520f2000e11a20006014200066310200e5
:102a280002000000e48757000000e00002003a00be
:102a3800aafe0700ffff37002630f80080592f0054
:102a4800801f78008003eb00060024008002eb0062
:102a5800f40e2000f31d2000620d2000e11a200072
:102a6800701420006631020002000000e48757005d
:102a78000000e00002003a0098fe0700ffff370060
:102a88002630f800d0592f00801f78008003eb0013
:102a9800060024008002eb00640d2000f31d2000d6
:102aa800c20b2000e11a20008014200066310200c9
:102ab80002000000e48757000000e00002003a002e
:102ac80086fe0700ffff37002630f800205a2f0047
:102ad800801f78008003eb00060024008002eb00d2
:102ae800c40b2000f31d2000320a2000e11a200048
:102af800901420006631020002000000e4875700ad
:102b08000000e00002003a0074fe0700ffff3700f3
:102b180057818100765a2f0085012400840c2000fb
:102b2800f3172000f20a200071062000a0142000ec
:102b380064450200020000000000e00002003a00c4
:102b480066fe0700ffff370057818100965a2f0065
:102b5800850124003407200033032000a20520004b
:102b6800c1002000b01420006445020002000000eb
:102b78000000e00002003a0058fe0700ffff37009f
:102b880057818100e65a2f0085012400a4082000ff
:102b98003303200012072000c1002000c0142000c9
:102ba80064450200020000000000e00002003a0054
:102bb8004afe0700ffff370057818100365b2f0070
:102bc80085012400a40520003310200012042000f1
:102bd800f10c2000d014200064450200020000001f
:102be8000000e00002003a003cfe0700ffff37004b
:102bf800b7818100b65b2f008501240034072000cf
:102c080073062000a205200031032000e0142000f4
:102c180064450200020000000000e00002003a00e3
:102c28002efe0700ffff3700b7818100d65b2f001b
:102c380085012400c4082000730620003207200004
:102c480031032000f0142000644502000200000057
:102c58000000e00002003a0020fe0700ffff3700f6
:102c6800b7818100f65b2f0085012400340720001e
:102c7800b3092000a20520007106200000152000dd
:102c880064450200020000000000e00002003a0073
:102c980012fe0700ffff3700b7818100165c2f0086
:102ca80085012400c4082000b30920003207200051
:102cb8007106200010152000644502000200000083
:102cc8000000e00002003a0004fe0700ffff3700a2
:102cd800b7818100365c2f0085012400340720006d
:102ce800f30c2000a2052000b109200020152000c7
:102cf80064450200020000000000e00002003a0003
:102d0800f6fd0700ffff3700b7818100565c2f00f2
:102d180085012400c4082000f30c2000320720009d
:102d2800b1092000301520006445020002000000af
:102d38000000e00002003a00e8fd0700ffff37004e
:102d4800b7818100765c2f008501240034072000bc
:102d580033102000a2052000f10c200040152000af
:102d680064450200020000000000e00002003a0092
:102d7800dafd0700ffff3700b7818100965c2f005e
:102d880085012400c40820003310200032072000e9
:102d9800f10c2000501520006445020002000000dc
:102da8000000e00002003a00ccfd0700ffff3700fa
:102db80057818100b65c2f0085012400940520000e
:102dc800931d200002042000511a200060152000e5
:102dd80064450200020000000000e00002003a0022
:102de800befd0700ffff370057818100265d2f00d9
:102df80085012400a4052000531a20001204200095
:102e08001117200070152000644502000200000020
:102e18000000e00002003a00b0fd0700ffff3700a5
:102e280057818100965d2f0085012400a4052000ac
:102e38001317200012042000d11320008015200051
:102e480064450200020000000000e00002003a00b1
:102e5800a2fd0700ffff370057818100065e2f00a3
:102e680085012400a4052000d313200012042000ab
:102e78009110200090152000644502000200000017
:102e88000000e00002003a0094fd0700ffff370051
:102e9800b7818100765e2f00850124003407200069
:102ea800d3132000a205200091102000a0152000b7
:102eb80064450200020000000000e00002003a0041
:102ec80086fd0700ffff3700b7818100965e2f005f
:102ed80085012400c4082000d313200032072000f5
:102ee80091102000b0152000644502000200000087
:102ef8000000e00002003a0078fd0700ffff3700fd
:102f0800b7818100b65e2f008501240034072000b8
:102f180013172000a2052000d1132000c01520009f
:102f280064450200020000000000e00002003a00d0
:102f38006afd0700ffff3700b7818100d65e2f00ca
:102f480085012400c4082000131720003207200040
:102f5800d1132000d01520006445020002000000b3
:102f68000000e00002003a005cfd0700ffff3700a8
:102f7800b7818100f65e2f00850124003407200008
:102f8800531a2000a205200011172000e015200088
:102f980064450200020000000000e00002003a0060
:102fa8004efd0700ffff3700b7818100165f2f0035
:102fb80085012400c4082000531a2000320720008d
:102fc80011172000f01520006445020002000000df
:102fd8000000e00002003a0040fd0700ffff370054
:102fe800b7818100365f2f00850124003407200057
:102ff800931d2000a2052000511a20000016200071
:1030080064450200020000000000e00002003a00ef
:1030180032fd0700ffff3700b7818100565f2f00a0
:1030280085012400c4082000931d200032072000d9
:10303800511a20001016200064450200020000000a
:103048000000e00002003a0024fd0700ffff3700ff
:1030580057818100765f2f0005012400f40a2000c3
:10306800730620006209200041002000201620007d
:1030780064450200020000000000e00002003a007f
:1030880016fd0700ffff37005781810066602f009b
:1030980085012400f40a2000f317200062092000ab
:1030a800710620003016200064450200020000006e
:1030b8000000e00002003a0008fd0700ffff3700ab
:1030c8005781810086602f0085002400d40f2000de
:1030d80093102000c20e2000510e20004016200040
:1030e800ba380200020000000000e00002003a00c6
:1030f800fafc0700ffff370057818100a6602f0008
:1031080085002400c40e2000f3182000b20d200012
:10311800b116200050162000ba3802000200000044
:103128000000e00002003a00ecfc0700ffff370057
:103138002030f80007ab2d0016c0b30005002400ae
:1031480084102000030e2000120e2000310a2000f7
:1031580060162000b4470200020000008f87e900d3
:103168000000e00002003a00dcfc0700ffff370027
:1031780057818100c6602f0085002400d40f2000ed
:10318800f3182000c20e2000b1162000701620008f
:10319800ba380200020000000000e00002003a0015
:1031a800cefc0700ffff37002030f80007ab2d00ea
:1031b80016c0b3000500240084102000f315200079
:1031c800120e20001112200080162000b4470200c1
:1031d800020000008f87e9000000e00002003a00ca
:1031e800befc0700ffff370057818100e6602f0013
:1031f80085002400e4102000f3182000d20f2000de
:10320800b116200090162000ba3802000200000013
:103218000000e00002003a00b0fc0700ffff3700a2
:103228005781810006612f0005012400140e20003b
:1032380063062000820c200041002000a016200018
:1032480064450200020000000000e00002003a00ad
:10325800a2fc0700ffff370057818100d6612f00cd
:1032680085012400140e2000d3092000920c2000b0
:1032780081062000b016200064450200020000000c
:103288000000e00002003a0094fc0700ffff37004e
:1032980000000600de710200000000009019200006
:1032a800d07b8900c04b0200000000003081810003
:1032b8000000e00002003200f00c020000000000f4
:1032c800c0710200000000003081890001e62c0076
:1032d80051009800f1012000610098008000eb0087
:1032e800210098008080eb003100980001087800e8
:1032f800308181001100980001802f004100980062
:10330800e1712d00710098000106b00001089800d5
:10331800a1a92d0011089800508181000000e0004b
:1033280002003200f00c020000000000c071020030
:1033380000000000508189000132230051009800ec
:10334800f1012000610098008080eb0021009800c6
:1033580011f020003100980001e62f0001087800e4
:10336800508181000166200011009800416a220006
:1033780041009800e1712d0071009800911920001a
:103388000108980021aa2d001108980000818100e9
:103398000000e00002003200f00c02000000000013
:1033a800c07102000000000000818900c1552200a0
:1033b800510098005143210061009800318c210090
:1033c800210098008080eb003100980001e62f0072
:1033d800010878000081810071bb2100110098006c
:1033e8000141280041009800e1712d00710098000a
:1033f8000106b0000108980061aa2d001108980084
:10340800b08181000000e00002003200f00c0200f0
:1034180000000000c071020000000000b0818900b7
:103428009101200051009800524321006200980049
:1034380002fe2f00220098000081eb003200980065
:103448000008eb00b081810072bb210012009800d7
:1034580041009800e1712d007100980031012000b1
:1034680001089800e1a92d00110898002630f800fd
:10347800a04e2f00801f78008003eb000600240078
:103488008002eb00b4092000931d2000d207200021
:10349800111a2000101220006631020002000000fc
:1034a800e48757000000e00002003a000bfc070028
:1034b800ffff37002630f800f04e2f00801f7800fd
:1034c8008003eb00060024008002eb00e40b2000e0
:1034d800931d2000020a2000111a2000201220004b
:1034e8006631020002000000e48757000000e00097
:1034f80002003a00f9fb0700ffff37002630f8000a
:10350800404f2f00801f78008003eb000600240046
:103518008002eb00140e2000931d2000320c2000c6
:10352800111a20003012200066310200020000004b
:10353800e48757000000e00002003a00e7fb0700bc
:10354800ffff37002630f800904f2f00801f7800cb
:103558008003eb00060024008002eb0044102000ea
:10356800a31d2000620e2000211a20004012200016
:103578006631020002000000e48757000000e00006
:1035880002003a00d5fb0700ffff37005781810092
:10359800d64f2f0005012400d4032000530c20002f
:1035a80062022000c104200050122000644502007d
:1035b800020000000000e00002003a00c7fb07001c
:1035c800ffff37005781810036502f000501240086
:1035d800d40320000313200062022000c10c200045
:1035e8006012200064450200020000000000e000b4
:1035f80002003a00b9fb0700ffff3700578181003e
:10360800d6502f000501240034022000430a200070
:10361800c2002000c104200070122000644502008e
:10362800020000000000e00002003a00abfb0700c7
:10363800ffff37005781810056512f008501240074
:1036480034022000930e2000c2002000610a2000ee
:103658008012200064450200020000000000e00023
:1036680002003a009dfb0700ffff370057818100e9
:1036780076512f008501240034022000a319200070
:10368800c20020009114200090122000644502001e
:10369800020000000000e00002003a008ffb070073
:1036a800ffff37005781810096512f0085012400c4
:1036b800e4032000e3182000720220009114200087
:1036c800a012200064450200020000000000e00093
:1036d80002003a0081fb0700ffff37005781810095
:1036e800b6512f00850124003402200093122000d7
:1036f800c2002000a10e2000b01220006445020084
:10370800020000000000e00002003a0073fb07001e
:10371800ffff37005781810006522f0085012400e2
:10372800940b200043182000020a200031072000d3
:10373800c012200064450200020000000000e00002
:1037480002003a0065fb0700ffff37005781810040
:1037580026522f0005012400940b2000e3062000c8
:10376800020a2000a1002000d012200064450200b7
:10377800020000000000e00002003a0057fb0700ca
:10378800ffff370057818100d6522f000501240022
:10379800040f2000e3062000720d2000a100200085
:1037a800e012200064450200020000000000e00072
:1037b80002003a0049fb0700ffff37002030f800fd
:1037c800a7aa2d0016c0b30005002400640320003a
:1037d80083042000a2002000a1002000f012200095
:1037e800b4470200020000008f87e9000000e000f3
:1037f80002003a0039fb0700ffff37002030f800cd
:1038080007ab2d0016c0b30005002400b41020003b
:1038180073122000120e2000910e200000132000c9
:10382800b4470200020000008f87e9000000e000b2
:1038380002003a0029fb0700ffff37002030f8009c
:1038480067ab2d0016c0b30005002400d403200088
:10385800a31d200092002000611a200010132000f0
:10386800b4470200020000008f87e9000000e00072
:1038780002003a0019fb0700ffff3700578181005b
:10388800a6532f0085012400f40e2000c309200050
:10389800720d20003107200020132000644502002b
:1038a800020000000000e00002003a000bfb0700e5
:1038b800ffff3700b7818100c6532f008501240020
:1038c80084072000130b2000f2052000a107200028
:1038d8003013200064450200020000000000e000f0
:1038e80002003a00fdfa0700ffff3700b7818100a8
:1038f800e6532f008501240064092000230b2000d3
:10390800d2072000b10720004013200064450200c0
:10391800020000000000e00002003a00effa070091
:10392800ffff37005781810006542f00050124004e
:1039380084072000e3062000f2052000a1002000f3
:103948005013200064450200020000000000e0005f
:1039580002003a00e1fa0700ffff370057818100b3
:1039680056542f000501240064092000e3062000b6
:10397800d2072000a1002000601320006445020047
:10398800020000000000e00002003a00d3fa07003d
:10399800ffff370057818100a6542f0085012400be
:1039a800f4052000f30a200062042000b10720007b
:1039b8007013200064450200020000000000e000cf
:1039c80002003a00c5fa0700ffff3700578181005f
:1039d800d6542f0085002400b4102000f3162000d0
:1039e800920f2000a114200080132000ba38020092
:1039f800020000000000e00002003a00b7fa0700e9
:103a0800ffff370000000600de7102000000000022
:103a180090192000d07b8900c04b020000000000f4
:103a2800308181000000e00002003200f00c02004a
:103a380000000000c0710200000000003081890011
:103a480001e62c0051009800f10120006100980067
:103a58008000eb00210098008080eb003100980086
:103a680001087800308181001100980001802f0042
:103a780041009800e1712d00710098000106b00026
:103a880001089800a1a92d00110898005081810013
:103a98000000e00002003200f00c0200000000000c
:103aa800c07102000000000050818900013223002b
:103ab80051009800f1012000610098008080eb001f
:103ac8002100980011f020003100980001e62f0035
:103ad80001087800508181000166200011009800db
:103ae800416a220041009800e1712d0071009800a0
:103af800911920000108980021aa2d0011089800aa
:103b0800008181000000e00002003200f00c020099
:103b180000000000c0710200000000000081890060
:103b2800c1552200510098005143210061009800be
:103b3800318c2100210098008080eb003100980032
:103b480001e62f00010878000081810071bb210087
:103b5800110098000141280041009800e1712d00f2
:103b6800710098000106b0000108980061aa2d00b4
:103b7800110898002630f800b0472f00801f780001
:103b88008003eb00060024008002eb00b40920004b
:103b9800931d2000d2072000111a2000c010200019
:103ba8006631020002000000e48757000000e000d0
:103bb80002003a0049fa0700ffff37002630f800f4
:103bc80000482f00801f78008003eb0006002400c7
:103bd8008002eb00e40b2000931d2000020a200065
:103be800111a2000d01020006631020002000000e7
:103bf800e48757000000e00002003a0037fa0700a7
:103c0800ffff37002630f80050482f00801f78004b
:103c18008003eb00060024008002eb00240e200045
:103c2800931d2000420c2000111a2000e0102000f3
:103c38006631020002000000e48757000000e0003f
:103c480002003a0025fa0700ffff37002630f80087
:103c5800a0482f00801f78008003eb000600240096
:103c68008002eb0044102000a31d2000620e2000fb
:103c7800211a2000f0102000663102000200000026
:103c8800e48757000000e00002003a0013fa07003a
:103c9800ffff370057818100e6482f000501240007
:103ca800d4032000530c200062022000c10420002d
:103cb8000011200064450200020000000000e0003e
:103cc80002003a0005fa0700ffff3700578181001c
:103cd80006492f0005012400d40320000313200007
:103ce80062022000c10c200010112000644502006f
:103cf800020000000000e00002003a00f7f90700a7
:103d0800ffff370057818100e6492f000501240095
:103d180034022000430a2000c2002000c104200011
:103d28002011200064450200020000000000e000ad
:103d380002003a00e9f90700ffff370057818100c8
:103d4800064a2f008501240034022000930e20002b
:103d5800c2002000610a20003011200064450200e2
:103d6800020000000000e00002003a00dbf9070052
:103d7800ffff370057818100264a2f008501240064
:103d880034022000a3192000c20020009114200052
:103d98004011200064450200020000000000e0001d
:103da80002003a00cdf90700ffff37005781810074
:103db800464a2f0085012400e4032000e318200070
:103dc8007202200091142000501120006445020066
:103dd800020000000000e00002003a00bff90700fe
:103de800ffff370057818100664a2f0085012400b4
:103df8003402200093122000c2002000a10e2000ef
:103e08006011200064450200020000000000e0008c
:103e180002003a00b1f90700ffff3700578181001f
:103e2800b64a2f0005012800b40a2000e318200034
:103e380022092000d10720007011200064450200eb
:103e4800020000000000e00002003a00a3f90700a9
:103e5800ffff370057818100d64a2f00050128004f
:103e6800b40a2000d3072000220920009101200075
:103e78008011200064450200020000000000e000fc
:103e880002003a0095f90700ffff37002030f800dc
:103e9800a7aa2d0016c0b300050024006403200063
:103ea80083042000a2002000a1002000901120001f
:103eb800b4470200020000008f87e9000000e0001c
:103ec80002003a0085f90700ffff37002030f800ac
:103ed80067ab2d0016c0b30005002400d4032000f2
:103ee800a31d200092002000611a2000a0112000cc
:103ef800b4470200020000008f87e9000000e000dc
:103f080002003a0075f90700ffff3700578181006a
:103f1800b64b2f0005012800440c2000e3182000b0
:103f2800b20a2000d1072000b01120006445020029
:103f3800020000000000e00002003a0067f90700f4
:103f4800ffff370057818100d64b2f00050128005d
:103f5800440c2000d3072000b20a20009101200061
:103f6800c011200064450200020000000000e000cb
:103f780002003a0059f90700ffff37005781810016
:103f8800c64c2f000501280024092000d307200073
:103f98009207200091012000d01120006445020002
:103fa800020000000000e00002003a004bf90700a0
:103fb800ffff370057818100764d2f00050128004b
:103fc80024092000e318200092072000d1072000d0
:103fd800e011200064450200020000000000e0003b
:103fe80002003a003df90700ffff370057818100c2
:103ff800964d2f0005012800e40d2000d30720006e
:10400800520c200091012000f011200064450200ac
:10401800020000000000e00002003a002ff907004b
:10402800ffff370057818100864e2f0005012800c9
:10403800e40d2000e3182000520c2000d1072000d6
:104048000012200064450200020000000000e000a9
:1040580002003a0021f90700ffff370000000600c0
:10406800de7102000000000090192000d07b89005a
:10407800c04b020000000000308181000000e00019
:1040880002003200f00c020000000000c0710200c3
:10409800000000003081890001e62c0051009800e2
:1040a800f1012000610098008000eb0021009800d9
:1040b8008080eb0031009800010878003081810091
:1040c8001100980001802f0041009800e1712d0037
:1040d800710098000106b00001089800a1a92d0000
:1040e80011089800508181000000e00002003200b1
:1040f800f00c020000000000c07102000000000087
:10410800508189000132230051009800f1012000fc
:10411800610098008080eb002100980011f02000d9
:104128003100980001e62f000108780050818100d5
:104138000166200011009800416a220041009800a1
:10414800e1712d0071009800911920000108980074
:1041580021aa2d0011089800008181000000e000cc
:1041680002003200f00c020000000000c0710200e2
:104178000000000000818900c1552200510098000c
:104188005143210061009800318c210021009800e2
:104198008080eb003100980001e62f0001087800cc
:1041a8000081810071bb21001100980001412800a5
:1041b80041009800e1712d00710098000106b000df
:1041c8000108980061aa2d0011089800b0818100ab
:1041d8000000e00002003200f00c020000000000c5
:1041e800c071020000000000b08189009101200028
:1041f80051009800524321006200980002fe2f00ef
:10420800220098000081eb00320098000008eb00c3
:10421800b081810072bb2100120098004100980013
:10422800e1712d007100980031012000010898000b
:10423800e1a92d00110898002630f80050322f000f
:10424800801f78008003eb00060024008002eb004a
:10425800d4102000a31d2000020f2000411a2000c6
:10426800b00c20006631020002000000e48757000d
:104278000000e00002003a0098f80700ffff37004e
:104288005781810096322f0085012400f403200015
:10429800530c200082022000c1042000c00c200022
:1042a80064450200020000000000e00002003a003d
:1042b8008af80700ffff37005781810096332f00e7
:1042c800050124000404200073132000920220003a
:1042d800310d2000d00c20006445020002000000cf
:1042e8000000e00002003a007cf80700ffff3700fa
:1042f8005781810086342f00850124003402200074
:10430800430a2000c2002000c1042000e00c200065
:1043180064450200020000000000e00002003a00cc
:104328006ef80700ffff370057818100e6342f0041
:104338008501240034022000b30e2000c2002000b2
:10434800f10a2000f00c2000644502000200000081
:104358000000e00002003a0060f80700ffff3700a5
:104368005781810036352f00850124003402200052
:10437800a3192000c200200091142000000d200085
:1043880064450200020000000000e00002003a005c
:1043980052f80700ffff370057818100c6352f000c
:1043a8008501240004042000a319200092022000a3
:1043b80051152000100d2000644502000200000085
:1043c8000000e00002003a0044f80700ffff370051
:1043d8005781810026362f008501240034022000f1
:1043e80073132000c2002000810f2000200d200040
:1043f80064450200020000000000e00002003a00ec
:1044080036f80700ffff37002030f80027ac2d00f2
:1044180016c0b30005002400c40320009304200044
:1044280002012000a1002000300d2000b447020046
:10443800020000008f87e9000000e00002003a0057
:1044480026f80700ffff37002030f80067ab2d0083
:1044580016c0b3000500240004042000831d2000ba
:10446800c2002000411a2000400d2000b44702007d
:10447800020000008f87e9000000e00002003a0017
:1044880016f80700ffff3700b781810086362f0036
:1044980085012400b4052000330420000204200014
:1044a800a1002000500d2000644502000200000019
:1044b8000000e00002003a0008f80700ffff37009c
:1044c800b7818100d6362f008501240064072000bb
:1044d80033042000b2052000a1002000600d200058
:1044e80064450200020000000000e00002003a00fb
:1044f800faf70700ffff3700b781810026372f0042
:1045080085012400140920003304200062072000dc
:10451800a1002000700d2000644502000200000088
:104528000000e00002003a00ecf70700ffff370048
:10453800b781810076372f0085012400c40a200046
:104548003304200012092000a1002000800d200063
:1045580064450200020000000000e00002003a008a
:10456800def70700ffff3700b7818100c6372f004d
:1045780085012400740c200033042000c20a2000a6
:10458800a1002000900d20006445020002000000f8
:104598000000e00002003a00d0f70700ffff3700f4
:1045a800b781810016382f0085012400240e2000d1
:1045b80033042000720c2000a1002000a00d200070
:1045c80064450200020000000000e00002003a001a
:1045d800c2f70700ffff3700b781810066382f0058
:1045e80085012400d40f200033042000220e20006f
:1045f800a1002000b00d2000644502000200000068
:104608000000e00002003a00b4f70700ffff37009f
:10461800b7818100b6382f0085012400b405200039
:10462800c30720000204200031042000c00d200030
:1046380064450200020000000000e00002003a00a9
:10464800a6f70700ffff3700b781810006392f0062
:104658008501240064072000c3072000b20520005c
:1046680031042000d00d2000644502000200000043
:104678000000e00002003a0098f70700ffff37004b
:10468800b781810056392f008501240014092000c4
:10469800c30720006207200031042000e00d20003d
:1046a80064450200020000000000e00002003a0039
:1046b8008af70700ffff3700b7818100a6392f006e
:1046c80085012400c40a2000c30720001209200025
:1046d80031042000f00d20006445020002000000b3
:1046e8000000e00002003a007cf70700ffff3700f7
:1046f800b7818100f6392f0085012400740c200051
:10470800c3072000c20a200031042000000e200048
:1047180064450200020000000000e00002003a00c8
:104728006ef70700ffff3700b7818100463a2f0078
:1047380085012400240e2000c3072000720c2000ed
:1047480031042000100e2000644502000200000021
:104758000000e00002003a0060f70700ffff3700a2
:10476800b7818100963a2f0085012400d40f2000dc
:10477800c3072000220e2000310420000200780028
:1047880064450200020000000000e00002003a0058
:1047980052f70700ffff3700b7818100e63a2f0084
:1047a80085012400b4052000530b200002042000da
:1047b800c1072000300e20006445020002000000fe
:1047c8000000e00002003a0044f70700ffff37004e
:1047d800b7818100363b2f00850124006407200043
:1047e800530b2000b2052000c1072000400e200016
:1047f80064450200020000000000e00002003a00e8
:1048080036f70700ffff3700b7818100863b2f008e
:104818008501240014092000530b200062072000a2
:10482800c1072000500e200064450200020000006d
:104838000000e00002003a0028f70700ffff3700f9
:10484800b7818100d63b2f0085012400c40a2000cf
:10485800530b200012092000c1072000600e200021
:1048680064450200020000000000e00002003a0077
:104878001af70700ffff3700b7818100263c2f0099
:1048880085012400740c2000530b2000c20a20006c
:10489800c1072000700e20006445020002000000dd
:1048a8000000e00002003a000cf70700ffff3700a5
:1048b800b7818100763c2f0085012400240e20005a
:1048c800530b2000720c2000c1072000800e20002e
:1048d80064450200020000000000e00002003a0007
:1048e800fef60700ffff3700b7818100c63c2f00a6
:1048f80085012400d40f2000530b2000220e200035
:10490800c1072000900e200064450200020000004c
:104918000000e00002003a00f0f60700ffff370051
:10492800b7818100163d2f0085012400b4052000c1
:10493800e30e200002042000510b2000a00e2000ee
:1049480064450200020000000000e00002003a0096
:10495800e2f60700ffff3700b7818100663d2f00b0
:104968008501240064072000e30e2000b205200022
:10497800510b2000b00e2000644502000200000028
:104988000000e00002003a00d4f60700ffff3700fd
:10499800b7818100b63d2f0085012400140920004d
:1049a800e30e200062072000510b2000c00e2000fb
:1049b80064450200020000000000e00002003a0026
:1049c800c6f60700ffff3700b7818100063e2f00bb
:1049d80085012400c40a2000e30e200012092000eb
:1049e800510b2000d00e2000644502000200000098
:1049f8000000e00002003a00b8f60700ffff3700a9
:104a0800b7818100563e2f0085012400740c2000d8
:104a1800e30e2000c20a2000510b2000030078009a
:104a280064450200020000000000e00002003a00b5
:104a3800aaf60700ffff3700b7818100a63e2f00c6
:104a480085012400240e2000e30e2000720c2000b3
:104a5800510b2000f00e2000644502000200000007
:104a68000000e00002003a009cf60700ffff370054
:104a7800b7818100f63e2f0085012400d40f200065
:104a8800e30e2000220e2000510b2000000f200012
:104a980064450200020000000000e00002003a0045
:104aa8008ef60700ffff3700b7818100463f2f00d1
:104ab80085012400b40520007312200002042000a0
:104ac800e10e2000100f20006445020002000000e3
:104ad8000000e00002003a0080f60700ffff370000
:104ae800b7818100963f2f008501240064072000cc
:104af80073122000b2052000e10e2000200f2000d4
:104b080064450200020000000000e00002003a00d4
:104b180072f60700ffff3700b7818100e63f2f00dc
:104b28008501240014092000731220006207200068
:104b3800e10e2000300f2000644502000200000052
:104b48000000e00002003a0064f60700ffff3700ab
:104b5800b781810036402f0085012400c40a200057
:104b68007312200012092000e10e2000400f2000df
:104b780064450200020000000000e00002003a0064
:104b880056f60700ffff3700b781810086402f00e7
:104b980085012400740c200073122000c20a200032
:104ba800e10e2000500f20006445020002000000c2
:104bb8000000e00002003a0048f60700ffff370057
:104bc800b7818100d6402f0085012400240e2000e3
:104bd80073122000720c2000e10e2000600f2000ec
:104be80064450200020000000000e00002003a00f4
:104bf8003af60700ffff3700b781810026412f00f2
:104c080085012400d40f200073122000220e2000fa
:104c1800e10e2000700f2000644502000200000031
:104c28000000e00002003a002cf60700ffff370002
:104c3800b781810076412f0085012400b40520004a
:104c4800031620000204200071122000800f2000ab
:104c580064450200020000000000e00002003a0083
:104c68001ef60700ffff3700b7818100c6412f00fd
:104c7800850124006407200013162000b2052000d7
:104c880081122000900f20006445020002000000fd
:104c98000000e00002003a0010f60700ffff3700ae
:104ca800b781810016422f008501240014092000d5
:104cb800131620006207200081122000a00f200098
:104cc80064450200020000000000e00002003a0013
:104cd80002f60700ffff3700b781810066422f0008
:104ce80085012400c40a20001316200012092000a0
:104cf80081122000b00f200064450200020000006d
:104d08000000e00002003a00f4f50700ffff37005a
:104d1800b7818100b6422f0085012400740c200061
:104d280013162000c20a200081122000c00f2000a4
:104d380064450200020000000000e00002003a00a2
:104d4800e6f50700ffff3700b781810006432f0013
:104d580085012400240e200003162000720c200078
:104d680071122000d00f20006445020002000000ec
:104d78000000e00002003a00d8f50700ffff370006
:104d8800b781810056432f0085012400d40f2000ed
:104d980013162000220e200081122000e00f2000b0
:104da80064450200020000000000e00002003a0032
:104db800caf50700ffff3700b7818100a6432f001f
:104dc80085012400b4052000931920000204200066
:104dd80001162000f00f20006445020002000000c8
:104de8000000e00002003a00bcf50700ffff3700b2
:104df800b7818100f6432f00850124006407200055
:104e080093192000b2052000011620000010200090
:104e180064450200020000000000e00002003a00c1
:104e2800aef50700ffff3700b781810046442f0029
:104e38008501240014092000a3192000620720001e
:104e48001116200010102000644502000200000026
:104e58000000e00002003a00a0f50700ffff37005d
:104e6800b781810096442f0085012400c40a2000e0
:104e7800a31920001209200011162000201020007c
:104e880064450200020000000000e00002003a0051
:104e980092f50700ffff3700b7818100e6442f0035
:104ea80085012400740c200093192000c20a2000f8
:104eb80001162000301020006445020002000000a6
:104ec8000000e00002003a0084f50700ffff370009
:104ed800b781810036452f0085012400240e20006b
:104ee80093192000720c20000116200040102000a9
:104ef80064450200020000000000e00002003a00e1
:104f080076f50700ffff3700b781810086452f003f
:104f180085012400d40f2000a3192000220e2000b0
:104f28001116200050102000644502000200000005
:104f38000000e00002003a0068f50700ffff3700b4
:104f4800b7818100d6452f0085012400b4052000d3
:104f5800231d200002042000911920006010200069
:104f680064450200020000000000e00002003a0070
:104f78005af50700ffff3700b781810026462f004a
:104f88008501240064072000231d2000b2052000ad
:104f980091192000701020006445020002000000f2
:104fa8000000e00002003a004cf50700ffff370060
:104fb800b781810076462f0085012400140920005e
:104fc800231d200062072000911920008010200076
:104fd80064450200020000000000e00002003a0000
:104fe8003ef50700ffff3700b7818100c6462f0056
:104ff80085012400c40a2000231d20001209200076
:105008009119200090102000644502000200000061
:105018000000e00002003a0030f50700ffff37000b
:10502800b781810016472f0085012400740c2000e9
:10503800231d2000c20a200091192000a010200082
:1050480064450200020000000000e00002003a008f
:1050580022f50700ffff3700b781810066472f0060
:1050680085012400240e2000231d2000720c20003e
:1050780091192000b01020006445020002000000d1
:105088000000e00002003a0014f50700ffff3700b7
:1050980000000600de7102000000000090192000e8
:1050a800d07b8900c04b02000000000030818100e5
:1050b8000000e00002003200f00c020000000000d6
:1050c800c0710200000000003081890001e62c0058
:1050d80051009800f1012000610098008000eb0069
:1050e800210098008080eb003100980001087800ca
:1050f800308181001100980001802f004100980044
:10510800e1712d00710098000106b00001089800b7
:10511800a1a92d0011089800508181000000e0002d
:1051280002003200f00c020000000000c071020012
:1051380000000000508189000132230051009800ce
:10514800f1012000610098008080eb0021009800a8
:1051580011f020003100980001e62f0001087800c6
:10516800508181000166200011009800416a2200e8
:1051780041009800e1712d007100980091192000fc
:105188000108980021aa2d0011089800608181006b
:105198000000e00002003200f00c020000000000f5
:1051a800c071020000000000608189008080eb006f
:1051b8005100980052432100620098002100980095
:1051c80031009800010878006081810071bb2100de
:1051d800110098000141280041009800e1712d005c
:1051e80071009800911920000108980061aa2d000b
:1051f80011089800008181000000e00002003200e0
:10520800f00c020000000000c07102000000000065
:1052180000818900c15522005100980051432100a6
:1052280061009800318c2100210098008080eb00fb
:105238003100980001e62f00010878000081810004
:1052480071bb21001100980001412800410098001d
:10525800e1712d00710098000106b0000108980066
:1052680061aa2d00110898002630f80090292f0017
:10527800801f78008003eb00060024008002eb000a
:10528800440e2000831d2000720c2000211a2000eb
:10529800500b20006631020002000000e48757002e
:1052a8000000e00002003a008cf40700ffff37001e
:1052b8002630f800d0292f00801f78008003eb00eb
:1052c800060024008002eb0024102000831d20002b
:1052d800520e2000211a2000600b200066310200c7
:1052e80002000000e48757000000e00002003a00d6
:1052f8007af40700ffff370057818100162a2f0034
:1053080085012400f4032000530c200082022000b1
:10531800c1042000700b2000644502000200000058
:105328000000e00002003a006cf40700ffff3700bd
:1053380057818100362a2f0005012400040420002b
:105348007313200092022000310d2000800b2000f2
:1053580064450200020000000000e00002003a007c
:105368005ef40700ffff370057818100e62a2f000f
:105378008501240014022000b30e2000a2002000a2
:10538800f10a2000900b2000644502000200000092
