:020000040000fa
:080000000002040000000000f2
:020000040000fa
:040008007803000079
:020000040000fa
:04000c007803000075
:020000040000fa
:040010007803000071
:020000040000fa
:04001400780300006d
:020000040000fa
:040018007803000069
:020000040000fa
:04001c007803000065
:020000040000fa
:040020007803000061
:020000040000fa
:04002400780300005d
:020000040000fa
:040028007803000059
:020000040000fa
:04002c007803000055
:020000040000fa
:040030007803000051
:020000040000fa
:04003400780300004d
:020000040000fa
:040038007803000049
:020000040000fa
:04003c007803000045
:020000040000fa
:040040007803000041
:020000040000fa
:04004400aa9f01006e
:020000040000fa
:04004800729f0100a2
:020000040000fa
:04004c007803000035
:020000040000fa
:040050007803000031
:020000040000fa
:04005400780300002d
:020000040000fa
:040058007803000029
:020000040000fa
:04005c007803000025
:020000040000fa
:040060007803000021
:020000040000fa
:04006400780300001d
:020000040000fa
:040068007803000019
:020000040000fa
:04006c007803000015
:020000040000fa
:040070007803000011
:020000040000fa
:04007400780300000d
:020000040000fa
:040078007803000009
:020000040000fa
:04007c007803000005
:020000040000fa
:040080007803000001
:020000040000fa
:0400840078030000fd
:020000040000fa
:0400880078030000f9
:020000040000fa
:04008c0078030000f5
:020000040000fa
:0400900078030000f1
:020000040000fa
:0400940078030000ed
:020000040000fa
:0400980078030000e9
:020000040000fa
:04009c0078030000e5
:020000040000fa
:0400a00078030000e1
:020000040000fa
:0400a40078030000dd
:020000040000fa
:0400a80078030000d9
:020000040000fa
:0400ac0078030000d5
:020000040000fa
:0400b00078030000d1
:020000040000fa
:0400b40078030000cd
:020000040000fa
:0400b80078030000c9
:020000040000fa
:0400bc0078030000c5
:020000040000fa
:0400c00078030000c1
:020000040000fa
:0400c40078030000bd
:020000040000fa
:0400c80078030000b9
:020000040000fa
:0400cc0078030000b5
:020000040000fa
:0400d00078030000b1
:020000040000fa
:0400d40078030000ad
:020000040000fa
:0400d80078030000a9
:020000040000fa
:0400dc0078030000a5
:020000040000fa
:0400e00078030000a1
:020000040000fa
:0400e400780300009d
:020000040000fa
:0400e8007803000099
:020000040000fa
:0400ec007803000095
:020000040000fa
:0400f0007803000091
:020000040000fa
:0400f400780300008d
:020000040000fa
:0400f8007803000089
:020000040000fa
:0400fc007803000085
:020000040000fa
:040100007803000080
:020000040000fa
:04010400780300007c
:020000040000fa
:040108007803000078
:020000040000fa
:04010c007803000074
:020000040000fa
:040110007803000070
:020000040000fa
:04011400780300006c
:020000040000fa
:040118007803000068
:020000040000fa
:04011c007803000064
:020000040000fa
:040120007803000060
:020000040000fa
:04012400780300005c
:020000040000fa
:040128007803000058
:020000040000fa
:04012c007803000054
:020000040000fa
:040130007803000050
:020000040000fa
:04013400780300004c
:020000040000fa
:040138007803000048
:020000040000fa
:04013c007803000044
:020000040000fa
:040140007803000040
:020000040000fa
:04014400780300003c
:020000040000fa
:040148007803000038
:020000040000fa
:04014c007803000034
:020000040000fa
:040150007803000030
:020000040000fa
:04015400780300002c
:020000040000fa
:040158007803000028
:020000040000fa
:04015c007803000024
:020000040000fa
:040160007803000020
:020000040000fa
:04016400780300001c
:020000040000fa
:040168007803000018
:020000040000fa
:04016c007803000014
:020000040000fa
:040170007803000010
:020000040000fa
:04017400780300000c
:020000040000fa
:040178007803000008
:020000040000fa
:04017c007803000004
:020000040000fa
:040180007803000000
:020000040000fa
:0401840078030000fc
:020000040000fa
:0401880078030000f8
:020000040000fa
:04018c0078030000f4
:020000040000fa
:0401900078030000f0
:020000040000fa
:0401940078030000ec
:020000040000fa
:0401980078030000e8
:020000040000fa
:04019c0078030000e4
:020000040000fa
:0401a00078030000e0
:020000040000fa
:0401a40078030000dc
:020000040000fa
:0401a80078030000d8
:020000040000fa
:0401ac0078030000d4
:020000040000fa
:0401b00078030000d0
:020000040000fa
:0401b40078030000cc
:020000040000fa
:0401b800aa66000033
:020000040000fa
:040208007803000077
:020000040000fa
:04020c007803000073
:020000040000fa
:04021000780300006f
:020000040000fa
:04021400780300006b
:020000040000fa
:040218007803000067
:020000040000fa
:04021c007803000063
:020000040000fa
:04022000780300005f
:020000040000fa
:04022400780300005b
:020000040000fa
:040228007803000057
:020000040000fa
:04022c007803000053
:020000040000fa
:04023000780300004f
:020000040000fa
:04023400780300004b
:020000040000fa
:040238007803000047
:020000040000fa
:04023c007803000043
:020000040000fa
:04024000780300003f
:020000040000fa
:04024400780300003b
:020000040000fa
:040248007803000037
:020000040000fa
:04024c007803000033
:020000040000fa
:04025000780300002f
:020000040000fa
:04025400780300002b
:020000040000fa
:040258007803000027
:020000040000fa
:04025c007803000023
:020000040000fa
:04026000780300001f
:020000040000fa
:04026400780300001b
:020000040000fa
:040268007803000017
:020000040000fa
:04026c007803000013
:020000040000fa
:04027000780300000f
:020000040000fa
:04027400780300000b
:020000040000fa
:040278007803000007
:020000040000fa
:04027c007803000003
:020000040000fa
:0402800078030000ff
:020000040000fa
:0402840078030000fb
:020000040000fa
:0402880078030000f7
:020000040000fa
:04028c0078030000f3
:020000040000fa
:0402900078030000ef
:020000040000fa
:0402940078030000eb
:020000040000fa
:0402980078030000e7
:020000040000fa
:04029c0078030000e3
:020000040000fa
:0402a00078030000df
:020000040000fa
:0402a40078030000db
:020000040000fa
:0402a80078030000d7
:020000040000fa
:0402ac0078030000d3
:020000040000fa
:0402b00078030000cf
:020000040000fa
:0402b40078030000cb
:020000040000fa
:0402b80078030000c7
:020000040000fa
:0402bc0078030000c3
:020000040000fa
:0402c00078030000bf
:020000040000fa
:0402c40078030000bb
:020000040000fa
:0402c80078030000b7
:020000040000fa
:0402cc0078030000b3
:020000040000fa
:0402d00078030000af
:020000040000fa
:0402d40078030000ab
:020000040000fa
:0402d80078030000a7
:020000040000fa
:0402dc0078030000a3
:020000040000fa
:0402e000780300009f
:020000040000fa
:0402e400780300009b
:020000040000fa
:0402e8007803000097
:020000040000fa
:0402ec007803000093
:020000040000fa
:0402f000780300008f
:020000040000fa
:0402f400780300008b
:020000040000fa
:0402f8007803000087
:020000040000fa
:0402fc007803000083
:020000040000fa
:04030000780300007e
:020000040000fa
:04030400780300007a
:020000040000fa
:040308007803000076
:020000040000fa
:04030c007803000072
:020000040000fa
:04031000780300006e
:020000040000fa
:04031400780300006a
:020000040000fa
:040318007803000066
:020000040000fa
:04031c007803000062
:020000040000fa
:04032000780300005e
:020000040000fa
:04032400780300005a
:020000040000fa
:040328007803000056
:020000040000fa
:04032c007803000052
:020000040000fa
:04033000780300004e
:020000040000fa
:04033400780300004a
:020000040000fa
:040338007803000046
:020000040000fa
:04033c007803000042
:020000040000fa
:04034000780300003e
:020000040000fa
:04034400780300003a
:020000040000fa
:040348007803000036
:020000040000fa
:04034c007803000032
:020000040000fa
:04035000780300002e
:020000040000fa
:04035400780300002a
:020000040000fa
:040358007803000026
:020000040000fa
:04035c007803000022
:020000040000fa
:04036000780300001e
:020000040000fa
:04036400780300001a
:020000040000fa
:040368007803000016
:020000040000fa
:04036c007803000012
:020000040000fa
:04037000780300000e
:020000040000fa
:04037400780300000a
:020000040000fa
:040378007803000006
:020000040000fa
:04037c007803000002
:020000040000fa
:0403800078030000fe
:020000040000fa
:0403840078030000fa
:020000040000fa
:0403880078030000f6
:020000040000fa
:04038c0078030000f2
:020000040000fa
:0403900078030000ee
:020000040000fa
:0403940078030000ea
:020000040000fa
:0403980078030000e6
:020000040000fa
:04039c0078030000e2
:020000040000fa
:0403a00078030000de
:020000040000fa
:0403a40078030000da
:020000040000fa
:0403a80078030000d6
:020000040000fa
:0403ac0078030000d2
:020000040000fa
:0403b00078030000ce
:020000040000fa
:0403b40078030000ca
:020000040000fa
:0403b80078030000c6
:020000040000fa
:10040000af9625000eff27000e01880000000000b7
:10041000000020000000e000020032000001200087
:100420002002880014000700010107000000e0001e
:1004300003003a00a07526000100200002003700ea
:100440000000200001002000810f70000100320038
:1004500014000700000020000000e000020032004d
:100460000000020000000000c619020002000000a7
:100470000040da000000fe004440a90080d82700b8
:100480000000e000030032001020200090018800ee
:100490004440a800000006008a1f78008b1f7800e7
:1004a00000000600a1028800800478000000eb0034
:1004b0001f003700e284440054a0b4009905ba003c
:1004c000e284440054a0b4009906ba00e2844400d7
:1004d00054a0b4000006eb00476fde00fd07b20039
:1004e000ae018800636ce10003003a00eaff0700f8
:1004f0000000eb000e003700606ce10008003a00dd
:10050000004deb000a05e800020039003420ec0041
:100510000af0a0008b05e900f9ff3e000400370057
:100520006168e100010032000086eb000b0007006b
:1005300019c7ba001905ba000e04e00003003a001a
:100540000a00e000dbff3a0000000600fe07b200f0
:10055000ae0288008a047800f5ff37000cd0a300b3
:10056000e20f4d001c00390089027800354dba00b9
:100570000a05e800020039003420ec000af0a0006f
:100580008b05e9000f003200254dba000a05e8008e
:10059000020039003420ec000af0a0008b05e900cd
:1005a000080032000c00e0000600320015cdba0051
:1005b0000a05e800020039003420ec000af0a0002f
:1005c0008b05e9008984e80054a0b4000b00e0002a
:1005d000e2ff3a00000006009902ba00055d7800cb
:1005e0008b05e900f7ff3200c82ade00055d7800c0
:1005f0008b05e900f3ff32000c00e000f1ff320050
:1006000019ddba00eeff3700c04004000200000010
:10061000da3f0400020000009043040002000000e2
:100620001849040002000000b24804000200000063
:10063000064b040002000000844c0400020000008d
:10064000484c040002000000a85204000200000010
:1006500076520400020000005a5504000200000017
:100660002855040002000000303e04000200000093
:10067000be3f040002000000a43f0400020000008e
:100680003044040000000000403d04000000000071
:100690003638040000000000e831040000000000cb
:1006a000de2b04000000000072280400000000009f
:1006b00058200400000000002c1d04000000000071
:1006c00072190400000000009c12040000000000e9
:1006d000b0110400000000008811040000000000b8
:1006e0001c11040000000000f410040000000000d1
:1006f0000040da000000fe000a00fa00e20f50009d
:100700001f003e00b0928100e10f50000600320051
:1007100080232000452320002323200004232000e1
:100720000000e00004003a00802220004522200062
:1007300023222000042220000600280094036300e6
:1007400002003a0007087800140a730013a8a300f7
:1007500001003a0013a0a000020078000500370055
:100760001388a300feff32003102fb00840a7800e8
:100770000000e9000000e000f9ff3a00080037003f
:1007800033002000b3bf9f00c0bf9f00d1bf9f00b8
:10079000e2bf9f006a805700790607006fb9970093
:1007a000020078000080fa0000000600889fbe006a
:1007b00080047800c09281000000e00004003a004c
:1007c0000e0007000084eb000000e0000800350088
:1007d000c89281000900e0000500320009004400d1
:1007e000060007000000e00001003d000084eb006f
:1007f000080078004f04be0000000600800078006a
:100800000100e00003003a00a0252300c092890007
:10081000000005000080eb00a2962500828f5000aa
:1008200002003e00c19289000000eb0000000600bb
:1008300000000500839f68000100e00002003d0009
:1008400060001000e08018000300e00002003d009e
:1008500060011100e0811900050007004f00e00071
:1008600002003b0060001000e0801800000006005d
:100870006022b800060220000000d0008180d20073
:100880000482d2008582d2000000a0000202520041
:1008900083825a00030031000202420083824a0030
:1008a0000000a1000603e900f3ff3a000000060083
:1008b0000c00fa00889fbe0000047800f0ff2700bb
:1008c000d0bf9f008004eb0099bf9f0088bf9f00ae
:1008d000a8bf9f00200c2000b0bf9f007881570068
:1008e000cfb0970070805700100007000fb8970036
:1008f000094878008fb89700088050004f04be0068
:100900000080fa0000000600d00190000281510032
:100910004240a9000300340010017800014978002a
:100920000208e8000100780000000600f687470092
:10093000889fbe008a9fbe008c9fbe008e1f7800dd
:1009400000057800a1b79f00020778008004eb0043
:1009500090023700afb097008100e800a1b79f0078
:1009600051c2b300814f500003003a00afb097006e
:100970000004eb0011003700ba0090000000fb00fb
:100980000168a300070032000901780080007800a8
:100990000a007800dcff07000000e00005003a00d4
:1009a0007c0237008a00780041030700e10f400015
:1009b000780232008904e8007602370001007800ee
:1009c00031417800d3c2b300834f51000c00320094
:1009d00007003c00edc15100834f51000a00320076
:1009e000ebc14100834f51000d003a000800370071
:1009f00003c3b300834f510009003a0006003700db
:100a00000830a000edff37000800a000ebff370022
:100a10000810a000e9ff37000820a000e7ff37001a
:100a20000818a300010032000800a1000838a30044
:100a3000010032000820a1008200fb000103b10088
:100a4000e98f50000c003e00000178008000eb00b0
:100a50006a08b900b201fb000303b10080804100c5
:100a6000020078009201fb000303b100e98f5100fe
:100a7000f7ff3600060037008000eb00a3c2b3008a
:100a8000834f510002003a00ce0078000000e800d9
:100a90008005eb00e2c2b300904f110009003a005c
:100aa00008e0a00064415100d04f11000300320063
:100ab000000178000102780006003700ce057800ba
:100ac0000000e80000017800090037006a58b9000a
:100ad0008085410002007800b201fb000303b100f1
:100ae000e98f5100f9ff360084007800f5ff3700e8
:100af00032407800a2b79f00c3c6b300834f5000b6
:100b0000250032000f003c0032c6b300824f500077
:100b10008800320004003c000004e00022023200a1
:100b20006b4151000f00370042c6b300824f5000a6
:100b30001700320065414100824f500094003a0096
:100b40001300370032c7b300824f50001b00320041
:100b500007003c0064415100824f500010003200f9
:100b60000241e800824f500089003a000f00370030
:100b700052c7b300824f50008a00320063414100e7
:100b8000824f500082003a00e0df9f0009003700ea
:100b9000e0df9f00850037000840a000d4ff370049
:100ba000e0df9f000860a00080003700e0df9f00ca
:100bb0000850a0000870a0007c003700e0df9f0014
:100bc0004e007800000678000000e00001003a00c6
:100bd0002c0323000c0178000000eb00010037001b
:100be0000000e800e24178000304e000fcff3a0066
:100bf000800678000b00e000030032008d8f550066
:100c0000010031008b0678008005eb008d8f5000cd
:100c1000010036008d855000680464002a003a0007
:100c2000110037003a0090000068a300070032006e
:100c300009017800010220000a00780032ff070055
:100c40000000e00006003a00060037008a00780045
:100c50000002200096020700e10f40000100320070
:100c60008904e8008b05e9000b00e000edff3a0085
:100c70008085eb00140037003a0090000068a30064
:100c8000090032000c007800b000fb00000678007c
:100c9000090178000a0078001bff07000000e0004f
:100ca00008003a00080037008c0078003100fb0093
:100cb000010678008a0078007d020700e10f4000fd
:100cc000010032008904e8000d0078008006e90088
:100cd0000000e000e8ff3a000800e000ad0132004b
:100ce000110037003a0090000068a30007003200ae
:100cf00009017800010220000a00780002ff0700c5
:100d00000000e00006003a00060037008a00780084
:100d10000002200066020700e10f400001003200df
:100d20008904e8008b05e9000b00e000edff3a00c4
:100d3000980137004e017800cf91de00c81ade001e
:100d40004818dd004812de0004027000e4df9f0056
:100d50000848a300080032000404e0000600320046
:100d6000e14f420004003200f4df9f0082e79f0061
:100d70002d00200002003700f2df9f001d00200040
:100d8000e2fd2f000f0141000206e80099ff370045
:100d9000e0df9f00ecfd2f000f0646001d00200045
:100da00094ff3700e0df9f00080cb30008017800d3
:100db000020cb200700064000200e0000d003a0076
:100dc0000000e000020032004e06be0002003700c4
:100dd0004e067800cfe6de00e00f5600e08f5e00a2
:100de0000a003d003800b30060061600e0861e00d1
:100df000060037000000e000020032004e06be0090
:100e0000020037004e0678008006eb000b00e00081
:100e100005003a008c8576000bf0a7008b05ea00f0
:100e20008b05e900cf5dde0088017800030cb2007d
:100e3000e3b79f0000042000808f510023003200a0
:100e400003003c000300e000080032002d003700e2
:100e5000000820006fb29700800f52000d00320092
:100e6000000c2000800f520026003a00a20323004d
:100e700010c0b30064014100b20f5600a28f5e00a3
:100e80001f0039000040e800ea4f5000f9ff3a0027
:100e90001b00370010c0b300020120000300200037
:100ea000820f5600838f5e0015003900441add0062
:100eb000cc11de00830172004411dd000040e80027
:100ec000e84f5000f6ff3a000d00370010c0b300a5
:100ed0008200200003002000820f5600838f5e00f6
:100ee00007003900431add00cd11de0083017200d6
:100ef0004311dd000040e800eb4f5000f6ff3a00e0
:100f0000e0df9f006fd997000200fb008b0f5000bd
:100f100002003d00ebdf9f0003003700808f55008b
:100f200001003d00800578000100e0000300320070
:100f300063006400010032008100e90008e8a300ba
:100f4000050032008b8f5000020034008b8050006f
:100f5000010037008000eb00efd997000300fb0091
:100f60000002eb00d4b79f00808f500002003400d5
:100f700000805000d0b79f000828a3004000320036
:100f8000610164000818a3000f0032003a009000cd
:100f90000068a30006003200b10220000200e00059
:100fa000010032008180e800090178000d0037005f
:100fb000b00220000200e000010032000080e800e2
:100fc0008a0078000e0037000200e00010003200b6
:100fd0003a0090000068a300070032000901780081
:100fe000010220000a00780047fe07000000e00030
:100ff00006003a00060037008a0078000002200050
:10100000ab010700e10f4000010032008904e80055
:101010005fb097000000e0005a003200bcb79f00ac
:10102000cdb79f00800678003a0090000068a300ca
:101030000700320009017800010320000a0078004f
:1010400031fe07000000e00006003a00060037000d
:101050008a0078000003200095010700e10f40009e
:10106000010032008904e8008d06e900eeff3a0035
:10107000ddb79f003fb69700cfb69700410037001d
:10108000dfb197000300e0001a0032000838a30027
:1010900018003a00bcb79f00cdb79f0083067800c8
:1010a0003a0090000068a3000700320009017800b0
:1010b000010220000a00780013fe07000000e00093
:1010c00006003a00060037008a007800000220007f
:1010d00077010700e10f4000010032008904e800b9
:1010e0008d06e900eeff3a00ddb79f003fb697009e
:1010f000cfb69700610164000818a3000f0032000a
:101100003a0090000068a30006003200b1022000ff
:101110000200e000010032008180e800090178004f
:101120000d003700b00220000200e0000100320094
:101130000080e8008a0078000e0037000200e0001e
:10114000100032003a0090000068a300070032004f
:1011500009017800010220000a007800eafd07007a
:101160000000e00006003a00060037008a00780020
:10117000000220004e010700e10f40000100320094
:101180008904e8000b03e9006330b900000178002e
:10119000b2b79f004233dd00a003230000034300e9
:1011a0008e01780093b79f00080778000604780046
:1011b0005c0037008b05e900000420006fb2970047
:1011c000800f52003800320003003c000400e000b1
:1011d000080032003e00370000082000efb0970002
:1011e000808f500020003200000c2000808f5000c3
:1011f00037003a000e48a300100032001802be006b
:101200000401be000c00be00f4b79f0085bf9f0024
:1012100097fd0700e0df9f000000fb00cf80de00ad
:101220007fb297008fba97000401be00e803070061
:101230000006560081865e0007003700180178001e
:10124000110009000286d800a20020001100090048
:101250000280d800e1df9f006fd997000243b00001
:10126000e2df9f001a003700100223000e58a3008f
:101270000100320000012300a1032300810054007b
:101280000c01be008100e900030033008301d1009e
:101290000281d300fbff3700ef006100e0c078005f
:1012a000e1df9f000a0037000c00be00bfb19700cd
:1012b0008301e900030033008100d1000080d300e6
:1012c000fbff3700674060000043b000e0df9f0095
:1012d000ba0090006fda97000400fb000168a300d9
:1012e0000700320009017800800078000a007800c9
:1012f00085fd07000000e00005003a00050037000a
:101300008a007800ea000700e10f40000100320087
:101310008904e8003fb0970063005000b0b79f0019
:10132000640454000b00e000a2ff3a000e047800b1
:101330001fb797000838a30016003200dfb09700ef
:101340000100e00013003400010478003a0090002e
:101350000068a300070032000901780001022000a4
:101360000a00780068fd07000000e00006003a006f
:10137000060037008a00780000022000cc00070039
:10138000e10f4000010032008904e8000804e90090
:10139000eeff3a002fb1970012407800e0df9f0087
:1013a0000004e0006bfd3a00090078004f07780068
:1013b0004f06be004f05be004f04be006f01b100d6
:1013c0000000060003487800000278008100fb005e
:1013d000a3002000110009008300d8008000fd0058
:1013e0008001780000c3b30000e241000104e00086
:1013f0000300320080c0400071fa9f000000060028
:1014000072fa9f000000060080017800638161008d
:10141000d016200010003a004206200011000900fa
:101420008281d80001017800e01620000200e0006f
:1014300009003a00c11220008380400002192000f8
:10144000110009008280d800d01620000100e000c1
:1014500001003a000000e80000000600889fbe007e
:101460001004be00c2032000030020000800be00dc
:1014700045030700808e8900c2032000030020007e
:101480000800be00ebfc07000004be00c203200001
:10149000030020003c030700908e8900c203200057
:1014a000030020000800be00e2fc07000004be00ac
:1014b000820120000300200033030700a08e890072
:1014c00082012000030020000800be00d9fc0700b4
:1014d0000004be00e4014000720020001100090079
:1014e0008201d80001017800e28e890069042000a1
:1014f00002003700000454008904e8000900780065
:10150000c1ff0700800f5400faff3d00d98e89000b
:1015100062406000f88e89008000eb000400370014
:10152000020454008100e8000080fb000000d100ac
:10153000d209230062c17800024170000281fb00e1
:10154000820f5400f6ff3d00c18e8900601d23000c
:101550000808e800660050004f04be0000000600c6
:101560000400fa0041fc2f00728e81000191b90045
:1015700030024100a0824900e4bf9f00f5bf9f00f8
:1015800064805700b5ff07000080fa0000000600e5
:10159000889fbe008a9fbe0000047800680090000b
:1015a0006300b90021062300cb162300e14d78002b
:1015b000008040008b00e800d04878008b80e80075
:1015c000104090008048780009c2b3000100e80094
:1015d00009487800480090006300b90081072300a3
:1015e000648145006149780000804000e580450045
:1015f000d0487800e6804500104090008048780090
:101600000100e80009487800b8009000894178009e
:1016100009417800630040006aff0700a8009000bd
:10162000a3c3b30002c3b3006d80450065ff07008c
:1016300098009000a3c3b30002c3b30070804500bc
:1016400060ff0700980078008941780002c3b3006a
:10165000738045005bff0700d80090004a06200019
:10166000110009008a00d800f34040008041eb00df
:10167000094178007680450052ff0700d8009000ad
:10168000110009008a00d800a3c0b30002c3b30050
:10169000788045004bff07000b0078004f05be0027
:1016a0004f04be0000000600adff0700b8ff370082
:1016b000889fbe0001047800b80090008084eb0091
:1016c0000118a3003a003200180190000198a3000d
:1016d00002003a000200e00035003a000190a0004c
:1016e0003104980080047800f90fb2000200e00095
:1016f00002003a0028009000000c7800ea8f5400a5
:1017000005003a000178a30003003a008800780041
:10171000d0002000e6ff070018009000d8009000dd
:10172000810f50000b0032000000e8001004980008
:101730001800780009487800000ce80011c0b300d8
:101740004024230001487800ea8f540018003a0032
:10175000050037008800780009407800490207003a
:101760008004780012003700380090000088a30041
:101770000f00320018019000a8009000480090006f
:10178000ddfb070098009000810f5000040032003c
:10179000380090000003b300300498008084eb0010
:1017a0000000eb001004980028009000000c780066
:1017b000090078004f04be0000000600889fbe00ac
:1017c0008a9fbe008c9fbe00411f2300a28f810014
:1017d0000200e0000b003a0064814000a28f890003
:1017e000f28f8900a1009800e18f890021419000cb
:1017f0000204a000a2409800614190000204a000f1
:10180000e2409800670440004244de004244dd00ac
:10181000e48f8100a1252300a9962500818454002e
:101820002d002000110009008d04d80080067800ea
:101830000886e8000c0646008001eb000200370035
:10184000130020000b027800a44090000108a300c0
:10185000020032000a003700120a780014017800f2
:10186000a24090000108a300fbff32008800420064
:10187000810f5100020039000800e00042003d00e5
:10188000940578000b00a100848f5500edff3e0009
:10189000e18f5100eaff3a008d0f5400020036003c
:1018a000890f5400140039006141b8006148b90043
:1018b000b4ff2f00050020000000520081805a0074
:1018c000800f5100818f59000200350064054400eb
:1018d0000a003700a0252300da96250000055500f0
:1018e00008054500110009000985d8000980b900e4
:1018f00000057800010037000c0578000a00780028
:10190000aafb0700e10f400005003a00640544000f
:101910000a007800a5fb0700e10f40002b00320011
:10192000f18f810080087800f18f8100e481400010
:1019300021419000830f5000020032000204a000f9
:10194000010037000204a100a24098006405550080
:101950000a0540000a087800fa8f8900411f230019
:10196000010d7800f28f8100a24090000104a000d8
:1019700021419800a04090000104a100214098005e
:101980008001eb00afff3700e18f8900810f51002c
:10199000070036001101be000290890013908900f3
:1019a000940878000041eb00e18f8100a24098008c
:1019b000e38f8100030a7800a44090000104a00096
:1019c0002142980064004200010037000000eb0053
:1019d0004f06be004f05be004f04be0000000600cb
:1019e0000000e0000800320064005000e18f810038
:1019f000810f500001003100e08f8900a04090006d
:101a00000104a1002140980000000600889fbe004c
:101a10008a9fbe000004be000900e00007003a00f3
:101a20000000eb000800e0003600320008007800fb
:101a3000ebff07000000eb00320037000800e00079
:101a400003003a00090078005cff07002d00370012
:101a5000640054009005780068f897000008a3001f
:101a60000200320008007800ddff0700090078005e
:101a700052ff0700800478000000eb000900e0003e
:101a800020003200888f54001b00320069bd97008f
:101a90000905550042d5de0088855500c2ddde000f
:101aa0000a0178008b0f5500010036000b01780009
:101ab0004211dd008800780009007800140007005a
:101ac000888f54000e0031004255dd000a85440025
:101ad000880f55000a0036000804550042c4de0095
:101ae0004244dd0008844400009081001190810090
:101af000008cbe00020037000800780001003700ab
:101b0000090078004f05be004f04be00000006002b
:101b10008001780002003700b15978000201e90025
:101b20000200e000fcff3a00000006000000fa009e
:101b3000889fbe008a9fbe00000578000fb99700fd
:101b4000f08557002a0037000201e80054c2b300b4
:101b500084cf510025003a00b24278000502fb0014
:101b60000403b1008b80e9000400e00008003a00a3
:101b7000810578009b01780001003700045d780042
:101b8000334278000404e000fcff3a0018003700fc
:101b9000810578009b0178000402420066e722007c
:101ba00006024200060478000a03780094037800d5
:101bb000110009008701d80081017800c403780072
:101bc000110009008701d8008003780000c3b3002a
:101bd00000db4300880f5200f4ff3a008502fb004f
:101be0000503b1000505450001003700035d7800dd
:101bf000924178000304e000d3ff3a00034d7800df
:101c00004f05be004f04be000080fa000000060031
:101c1000889fbe008a9fbe008c1f78000004780059
:101c200082047800030578008100e9000106440081
:101c3000880578000a0137008904e80050c2b30023
:101c4000804f510000013a0039407800a1c5b3002f
:101c5000814f5000e300320028003c00edc05000ee
:101c6000814f50008f00320012003c00ebc050004a
:101c7000814f50005500320007003c00c1d02200c7
:101c8000824f5000ec00320011c4b300814f50006d
:101c9000da003a004200370081c4b300814f50009f
:101ca0006f0032008140e800814f5000d3003a00bd
:101cb0006d00370071c5b300814f50008e003200b7
:101cc00007003c00e4c05000814f50007d0032000e
:101cd00081c0e800814f5000c8003a007b00370007
:101ce00081c5b300814f5000a90032008140e80057
:101cf000814f5000c1003a00b5003700a1c6b300c3
:101d0000814f5000600032000f003c00e8c05000de
:101d1000814f50002900320004003c008140e9005e
:101d2000814f5000b5003a001900370031c6b300aa
:101d3000814f5000290032008140e800814f50005f
:101d4000ae003a003d00370071c7b300814f50002c
:101d50007800320007003c00eac05000814f50007c
:101d60004d003200e3c04000814f5000a3003a0014
:101d70004e00370081c7b300814f50007100320020
:101d80008140e800814f50009c003a008b003700f2
:101d90006a00900000004000a1d622000300370036
:101da0006a0090000000400021db2200e100780082
:101db000a1003700800478009f0037004a0090009f
:101dc0000000400001df2200f8ff37004a009000c9
:101dd00000004000a1e52200f4ff3700da00900087
:101de000c0762000809f40009a1f78001a00900063
:101df000801f7800aa009000811f78003a009000b0
:101e0000801f78004a0090000000400001df22009f
:101e1000e11f78006a00900000004000a1d6220077
:101e2000e11f780050d12200801f78008018230025
:101e30003eff0700f087570007003700ba00900008
:101e4000811f7800a0d22200801f78008018230014
:101e500036ff0700e487570081182300760037001b
:101e60002a00900022003700aa009000c200200043
:101e7000110009008200d8000100e000f0ff3a00e4
:101e800082007800eeff37007a009000801fe800a3
:101e9000d0d22200ecff37004a009000801fe800fb
:101ea000e8ff37009a009000e5ff37002a00900015
:101eb000f1d02200eb0f50005f00340021d122004e
:101ec0005d0037009a1f7800deff37007a0090002f
:101ed00072002000110009000200d8000101780002
:101ee000ea009000810f5100010034000000e8007a
:101ef000801f7800d3ff3700fa01900072002000a5
:101f0000110009008201d8008101780000027800e8
:101f1000ea009000e6804000110009008200d8002d
:101f2000818f5100010034000402e800841f780012
:101f3000c4ff3700ea009000811f780000d3220020
:101f4000c1ff3700da009000c0762000809f40007b
:101f50003a009000801f78004a0090000000400086
:101f600001df2200e11f78006a00900000004000bd
:101f7000a1d62200e11f780030d32200801f780014
:101f800080182300e9fe0700ea875700b2ff3700f8
:101f90009a1f78009a009000811f78002a00900014
:101fa000801f780010d42200801f78008018230042
:101fb000defe0700e8875700a7ff37005a009000b1
:101fc00042062000110009000200d8009cff3700e3
:101fd000da009000c0762000809f4000a0d422004c
:101fe00099ff37000a089000e1d022000000e000cd
:101ff00011003200a17381000f0037008118230007
:1020000050c2b30080487800090078004041780051
:102010008101e800824978008181e8008049eb0075
:102020000204e00063ff3200030037008c8f55008c
:1020300007003200805d7800314078000004e00045
:10204000faff3a00060037008c8f550003003a0073
:10205000804deb000000eb0006003700825d780049
:10206000194178000204e000f3fe3a00824d780046
:10207000088055004f0678004f05be004f04be0093
:10208000000006000200fa00889fbe00a0ff9f002b
:1020900001047800380090000068a30033003a0083
:1020a000e200600005003a000003b300300498002d
:1020b000110498000080eb002e003700d804900037
:1020c0000900e00006003a0012002000e6805700f8
:1020d0004800900088f90700190498002300370091
:1020e000a80090000100e00008003a0071242300dd
:1020f00021049800010c7800210020005104980070
:10210000110498000030a0003004980018019000dd
:10211000a80090004800900077f907002800900080
:102120008080eb0011049800aff897000148780018
:10213000000ce8002ff89700ea4f50000b003a001f
:10214000380090000088a3000800320018019000b9
:10215000a80090004800900067f907000000eb001d
:1021600010049800a8009000010c7800aff89700c8
:102170000100fb004f04be000080fa0000000600d2
:1021800000c0da0000000600811f78000100e000b6
:1021900002003d0060001000e08018000300e00035
:1021a00002003d0060011100e081190005000700f8
:1021b0004f00e00002003b0060001000e0801800cb
:1021c00000000600aaf907000400be000000060097
:1021d000020ab900001bb9000200b80081004200e9
:0821e00081004300000006002d
:020000040000fa
:1021e800889fbe000000eb00807d890011c0b3000d
:1021f80020fb22000148780010062d005085890038
:10220800c8102000491320008801780009017800cf
:1022180088007800a00a2000e44c020000000000ba
:102228000000e000f8ff32004f04be000000060086
:10223800889fbe000000eb00807d890011c0b300bc
:1022480020fb22000148780010062d0050858900e7
:10225800a8062000091b20008801780009017800e1
:102268008800780090172000e44c0200000000006d
:102278000000e000f8ff32000000eb00807d8900dc
:1022880011c0b30020fb22000148780010062d0081
:1022980050858900c8092000091b200088017800a2
:1022a800090178008800780090172000e44c0200ab
:1022b800000000000000e000f8ff32000000eb0022
:1022c800807d890011c0b30020fb220001487800fe
:1022d80010062d005085890098082000b9152000a7
:1022e80088017800090178008800780040122000f1
:1022f800e44c0200000000000000e000f8ff32009b
:102308004f04be0000000600889fbe000000eb00de
:10231800807d890011c0b30020fb220001487800ad
:1023280010062d0050858900c81020005913200080
:10233800880178000901780088007800a00a200048
:10234800e44c0200000000000000e000f8ff32004a
:102358004f04be0000000600889fbe000000eb008e
:10236800807d890021fb2200804878000080eb00f6
:102378005085890060a92d00764f020000000000fa
:1023880028fa2e00f9092000080178008900780051
:10239800100320000c290200020000000000e000e9
:1023a800f9ff32000000eb00807d890021fb22004c
:1023b8008048780010062d005085890020a92d003e
:1023c800764f020000000000e8fc2e00890720007c
:1023d8000801780089007800100420000c29020008
:1023e800020000000000e000f9ff32004f04be00c8
:1023f800000006000000eb00408b890011c0b3000c
:10240800e014230001487800e08681000000010004
:1024180000000600408b81000000e800408b890026
:10242800e90f5000020036000000eb00408b8900e5
:1024380011c0b300e0142300014878000000060032
:10244800408b8900e90f5000020036000000eb00c5
:10245800408b890011c0b300e014230001487800c4
:1024680000000600a01623001004e0000700320058
:10247800408b810000004000010f230061007800bc
:1024880000000100a01623000048eb00e014230020
:102498001004e00010003200408b81000000400072
:1024a800c10d23006100780000000100408b81000d
:1024b80000004000010f2300610078000000e000e8
:1024c8000300320011c0b300a016230001487800b1
:1024d800e01423000048eb0000000600881f780085
:1024e800000478007007200050858900824c0200a3
:1024f800000000000080eb00508589000800e00023
:1025080005003a0082f72e006000b8000c2902008e
:102518000200000004003700080178006000b800dd
:102528000c290200020000004f0478000000060099
:10253800b472020000000000901920005085890044
:10254800824c020000000000d08a81000000e000f8
:1025580002003200f00c0200000000009672020037
:1025680000000000d08a8900013223005100980041
:10257800f1012000610098008080eb0021009800a4
:1025880011f020003100980001e62f0001087800c2
:10259800d08a81000166200011009800416a22005b
:1025a80041009800e1712d007100980091192000f8
:1025b8000108980021aa2d0011089800808a81003e
:1025c8000000e00002003200f00c020000000000f1
:1025d8009672020000000000808a8900c15522001e
:1025e800510098005143210061009800318c21006e
:1025f800210098008080eb003100980001e62f0050
:1026080001087800808a810071bb210011009800c0
:102618000141280041009800e1712d0071009800e7
:102628000106b0000108980061aa2d001108980061
:10263800b08a81000000e00002003200f00c0200c5
:10264800000000009672020000000000b08a8900b5
:1026580001e62c0051009800f1012000610098006b
:102668008000eb00210098008080eb00310098008a
:102678009119200001087800b08a810011009800a3
:1026880002802f0042009800e2712d00720098002d
:1026980001089800a1a92d0011089800308b81002d
:1026a8000000e00002003200f00c02000000000010
:1026b8009672020000000000308b89009101200012
:1026c80051009800524321006200980002fe2f003a
:1026d800220098000081eb00320098000008eb000f
:1026e800308b810072bb21001200980041009800d5
:1026f800e1712d0071009800310120000108980057
:10270800e1a92d0011089800d78a810056572f009b
:102718008501240004042000230f200082022000e9
:10272800c1042000c01320009654020002000000db
:102738000000e00002003a0068ff0700ffff3700d2
:10274800d78a810076572f0005012400f403200062
:102758005315200082022000310f2000d0132000e2
:1027680096540200020000000000e00002003a0057
:102778005aff0700ffff3700d78a810096572f00be
:102788000501240014022000330a2000a2002000c2
:10279800b1042000e013200096540200020000005b
:1027a8000000e00002003a004cff0700ffff37007e
:1027b800d78a810066582f00850124001402200062
:1027c800a30e2000a2002000a10a2000f013200080
:1027d80096540200020000000000e00002003a00e7
:1027e8003eff0700ffff3700d78a810086582f0079
:1027f8008501240024022000a3192000b200200033
:1028080091142000001420009654020002000000d9
:102818000000e00002003a0030ff0700ffff370029
:10282800d78a8100a6582f0085012400f4032000d0
:10283800a319200082022000511520001014200046
:1028480096540200020000000000e00002003a0076
:1028580022ff0700ffff3700d78a8100c6582f00e4
:102868008501240014022000f3122000a200200099
:10287800010f2000201420009654020002000000de
:102888000000e00002003a0014ff0700ffff3700d5
:102898005031f800a7aa2d0016c0b3000500240087
:1028a8007403200053042000b200200071002000af
:1028b80030142000e6560200020000008f87e9006d
:1028c8000000e00002003a0004ff0700ffff3700a5
:1028d8005031f80067ab2d0016c0b3000500240086
:1028e80094032000831d200052002000411a20007c
:1028f80040142000e6560200020000008f87e9001d
:102908000000e00002003a00f4fe0700ffff370075
:10291800d78a810026592f0085012400a4052000ac
:1029280073062000120420003103200050142000f8
:1029380096540200020000000000e00002003a0085
:10294800e6fe0700ffff3700d78a8100a6592f004f
:1029580085012400a4052000b309200012042000ea
:102968007106200060142000965402000200000046
:102978000000e00002003a00d8fe0700ffff370021
:10298800d78a8100265a2f0085012400a40520003b
:10299800f30c200012042000b1092000701420005c
:1029a80096540200020000000000e00002003a0015
:1029b800cafe0700ffff3700d78a8100a65a2f00fa
:1029c80005012400840c200063062000f20a200080
:1029d80041002000801420009654020002000000ec
:1029e8000000e00002003a00bcfe0700ffff3700cd
:1029f8005631f800905b2f00801f78008003eb00b1
:102a0800060024008002eb00e4102000f31d2000e3
:102a1800520f2000e11a200090142000ec4302001d
:102a280002000000e48757000000e00002003a00be
:102a3800aafe0700ffff37005631f800d05b2f00d1
:102a4800801f78008003eb00060024008002eb0062
:102a5800f40e2000f31d2000620d2000e11a200072
:102a6800a0142000ec43020002000000e487570095
:102a78000000e00002003a0098fe0700ffff370060
:102a88005631f800205c2f00801f78008003eb008f
:102a9800060024008002eb00640d2000f31d2000d6
:102aa800c20b2000e11a2000b0142000ec43020001
:102ab80002000000e48757000000e00002003a002e
:102ac80086fe0700ffff37005631f800705c2f00c4
:102ad800801f78008003eb00060024008002eb00d2
:102ae800c40b2000f31d2000320a2000e11a200048
:102af800c0142000ec43020002000000e4875700e5
:102b08000000e00002003a0074fe0700ffff3700f3
:102b1800d78a8100c65c2f0085012400840c200020
:102b2800f3172000f20a200071062000d0142000bc
:102b380096540200020000000000e00002003a0083
:102b480066fe0700ffff3700d78a8100e65c2f008a
:102b5800850124003407200033032000a20520004b
:102b6800c1002000e014200096540200020000007a
:102b78000000e00002003a0058fe0700ffff37009f
:102b8800d78a8100365d2f0085012400a408200023
:102b98003303200012072000c1002000f014200099
:102ba80096540200020000000000e00002003a0013
:102bb8004afe0700ffff3700d78a8100865d2f0095
:102bc80085012400a40520003310200012042000f1
:102bd800f10c2000001520009654020002000000ad
:102be8000000e00002003a003cfe0700ffff37004b
:102bf800378b8100065e2f008501240034072000f2
:102c080073062000a20520003103200010152000c3
:102c180096540200020000000000e00002003a00a2
:102c28002efe0700ffff3700378b8100265e2f003e
:102c380085012400c4082000730620003207200004
:102c480031032000201520009654020002000000e5
:102c58000000e00002003a0020fe0700ffff3700f6
:102c6800378b8100465e2f00850124003407200041
:102c7800b3092000a20520007106200030152000ad
:102c880096540200020000000000e00002003a0032
:102c980012fe0700ffff3700378b8100665e2f00aa
:102ca80085012400c4082000b30920003207200051
:102cb8007106200040152000965402000200000012
:102cc8000000e00002003a0004fe0700ffff3700a2
:102cd800378b8100865e2f00850124003407200091
:102ce800f30c2000a2052000b10920005015200097
:102cf80096540200020000000000e00002003a00c2
:102d0800f6fd0700ffff3700378b8100a65e2f0016
:102d180085012400c4082000f30c2000320720009d
:102d2800b10920006015200096540200020000003e
:102d38000000e00002003a00e8fd0700ffff37004e
:102d4800378b8100c65e2f008501240034072000e0
:102d580033102000a2052000f10c2000701520007f
:102d680096540200020000000000e00002003a0051
:102d7800dafd0700ffff3700378b8100e65e2f0082
:102d880085012400c40820003310200032072000e9
:102d9800f10c20008015200096540200020000006b
:102da8000000e00002003a00ccfd0700ffff3700fa
:102db800d78a8100065f2f00850124009405200032
:102dc800931d200002042000511a200090152000b5
:102dd80096540200020000000000e00002003a00e1
:102de800befd0700ffff3700d78a8100765f2f00fe
:102df80085012400a4052000531a20001204200095
:102e080011172000a01520009654020002000000af
:102e18000000e00002003a00b0fd0700ffff3700a5
:102e2800d78a8100e65f2f0085012400a4052000d1
:102e38001317200012042000d1132000b015200021
:102e480096540200020000000000e00002003a0070
:102e5800a2fd0700ffff3700d78a810056602f00c8
:102e680085012400a4052000d313200012042000ab
:102e780091102000c01520009654020002000000a6
:102e88000000e00002003a0094fd0700ffff370051
:102e9800378b8100c6602f0085012400340720008d
:102ea800d3132000a205200091102000d015200087
:102eb80096540200020000000000e00002003a0000
:102ec80086fd0700ffff3700378b8100e6602f0083
:102ed80085012400c4082000d313200032072000f5
:102ee80091102000e0152000965402000200000016
:102ef8000000e00002003a0078fd0700ffff3700fd
:102f0800378b810006612f008501240034072000db
:102f180013172000a2052000d1132000f01520006f
:102f280096540200020000000000e00002003a008f
:102f38006afd0700ffff3700378b810026612f00ed
:102f480085012400c4082000131720003207200040
:102f5800d113200000162000965402000200000041
:102f68000000e00002003a005cfd0700ffff3700a8
:102f7800378b810046612f0085012400340720002b
:102f8800531a2000a2052000111720001016200057
:102f980096540200020000000000e00002003a001f
:102fa8004efd0700ffff3700378b810066612f0059
:102fb80085012400c4082000531a2000320720008d
:102fc800111720002016200096540200020000006d
:102fd8000000e00002003a0040fd0700ffff370054
:102fe800378b810086612f0085012400340720007b
:102ff800931d2000a2052000511a20003016200041
:1030080096540200020000000000e00002003a00ae
:1030180032fd0700ffff3700378b8100a6612f00c4
:1030280085012400c4082000931d200032072000d9
:10303800511a200040162000965402000200000099
:103048000000e00002003a0024fd0700ffff3700ff
:10305800d78a8100c6612f0005012400f40a2000e8
:10306800730620006209200041002000501620004d
:1030780096540200020000000000e00002003a003e
:1030880016fd0700ffff3700d78a8100b6622f00c0
:1030980085012400f40a2000f317200062092000ab
:1030a80071062000601620009654020002000000fd
:1030b8000000e00002003a0008fd0700ffff3700ab
:1030c800d78a8100d6622f0085002400d40f200003
:1030d80093102000c20e2000510e20007016200010
:1030e800464b0200020000000000e00002003a0027
:1030f800fafc0700ffff3700d78a8100f6622f002d
:1031080085002400c40e2000f3182000b20d200012
:10311800b116200080162000464b02000200000075
:103128000000e00002003a00ecfc0700ffff370057
:103138005031f80007ab2d0016c0b300050024007d
:1031480084102000030e2000120e2000310a2000f7
:1031580090162000e6560200020000008f87e90062
:103168000000e00002003a00dcfc0700ffff370027
:10317800d78a810016632f0085002400d40f200011
:10318800f3182000c20e2000b1162000a01620005f
:10319800464b0200020000000000e00002003a0076
:1031a800cefc0700ffff37005031f80007ab2d00b9
:1031b80016c0b3000500240084102000f315200079
:1031c800120e200011122000b0162000e656020050
:1031d800020000008f87e9000000e00002003a00ca
:1031e800befc0700ffff3700d78a810036632f0037
:1031f80085002400e4102000f3182000d20f2000de
:10320800b1162000c0162000464b02000200000044
:103218000000e00002003a00b0fc0700ffff3700a2
:10322800d78a810056632f0005012400140e200060
:1032380063062000820c200041002000d0162000e8
:1032480096540200020000000000e00002003a006c
:10325800a2fc0700ffff3700d78a810026642f00f1
:1032680085012400140e2000d3092000920c2000b0
:1032780081062000e016200096540200020000009b
:103288000000e00002003a0094fc0700ffff37004e
:103298005631f80040642f00801f78008003eb004f
:1032a800060024008002eb00a41020007303200015
:1032b800f20e200041002000f0162000ec4302002e
:1032c80002000000e48757000000e00002003a0016
:1032d80082fc0700ffff370000000600b4720200fe
:1032e800000000009019200050858900824c0200df
:1032f80000000000b08a81000000e00002003200f7
:10330800f00c0200000000009672020000000000ad
:10331800b08a890001e62c0051009800f1012000d4
:10332800610098008000eb00210098008080eb008d
:10333800310098009119200001087800b08a8100b6
:103348001100980002802f0042009800e2712d00c1
:103358007200980001089800a1a92d001108980092
:10336800d08a81000000e00002003200f00c020068
:10337800000000009672020000000000d08a890058
:103388000132230051009800f101200061009800eb
:103398008080eb002100980011f020003100980097
:1033a80001e62f0001087800d08a8100016620001c
:1033b80011009800416a220041009800e1712d0037
:1033c80071009800911920000108980021aa2d0089
:1033d80011089800808a81000000e0000200320095
:1033e800f00c0200000000009672020000000000cd
:1033f800808a8900c155220051009800514321005c
:1034080061009800318c2100210098008080eb0039
:103418003100980001e62f0001087800808a8100b9
:1034280071bb21001100980001412800410098005b
:10343800e1712d00710098000106b00001089800a4
:1034480061aa2d0011089800308b81000000e0006f
:1034580002003200f00c0200000000009672020028
:1034680000000000308b8900910120005100980075
:10347800524321006200980002fe2f0022009800ab
:103488000081eb00320098000008eb00308b8100cf
:1034980072bb21001200980041009800e1712d00d4
:1034a800710098003101200001089800e1a92d0061
:1034b800110898005631f800f0502f00801f78004e
:1034c8008003eb00060024008002eb00b409200012
:1034d800931d2000d2072000111a2000401220005e
:1034e800ec43020002000000e48757000000e000ff
:1034f80002003a00f9fb0700ffff37005631f800d9
:1035080040512f00801f78008003eb000600240044
:103518008002eb00e40b2000931d2000020a20002b
:10352800111a200050122000ec4302000200000093
:10353800e48757000000e00002003a00e7fb0700bc
:10354800ffff37005631f80090512f00801f780098
:103558008003eb00060024008002eb00140e20001c
:10356800931d2000320c2000111a20006012200048
:10357800ec43020002000000e48757000000e0006e
:1035880002003a00d5fb0700ffff37005631f8006c
:10359800e0512f00801f78008003eb000600240014
:1035a8008002eb0044102000a31d2000620e2000c2
:1035b800211a200070122000ec43020002000000d3
:1035c800e48757000000e00002003a00c3fb070050
:1035d800ffff3700d78a810026522f0005012400fb
:1035e800e4032000530e200072022000c1042000d2
:1035f8008012200096540200020000000000e00043
:1036080002003a00b5fb0700ffff3700d78a8100a8
:1036180086522f0005012400e403200093142000a3
:1036280072022000510e20009012200096540200d1
:10363800020000000000e00002003a00a7fb0700bb
:10364800ffff3700d78a810026532f000501240089
:1036580034022000430a2000c2002000c1042000d8
:10366800a012200096540200020000000000e000b2
:1036780002003a0099fb0700ffff3700d78a810054
:10368800a6532f008501240034022000930e200049
:10369800c2002000610a2000b012200096540200e7
:1036a800020000000000e00002003a008bfb070067
:1036b800ffff3700d78a8100c6532f0085012400f9
:1036c80034022000a3192000c20020009114200019
:1036d800c012200096540200020000000000e00022
:1036e80002003a007dfb0700ffff3700d78a810000
:1036f800e6532f0085012400e4032000e31820008e
:103708007202200091142000d0122000965402006a
:10371800020000000000e00002003a006ffb070012
:10372800ffff3700d78a810006542f008501240047
:103738003402200093122000c2002000a10e2000b5
:10374800e012200096540200020000000000e00091
:1037580002003a0061fb0700ffff3700d78a8100ab
:1037680056542f0085012400940b20004318200094
:10377800020a200031072000f012200096540200af
:10378800020000000000e00002003a0053fb0700be
:10379800ffff3700d78a810076542f0005012400e7
:1037a800940b2000e3062000020a2000a10020005c
:1037b8000013200096540200020000000000e00000
:1037c80002003a0045fb0700ffff3700d78a810057
:1037d80026552f0005012400040f2000e3062000d1
:1037e800720d2000a1002000101320009654020042
:1037f800020000000000e00002003a0037fb07006a
:10380800ffff37005031f800a7aa2d0016c0b300fb
:10381800050024006403200083042000a200200087
:10382800a100200020132000e6560200020000003c
:103838008f87e9000000e00002003a0027fb07003c
:10384800ffff37005031f80007ab2d0016c0b3005a
:1038580005002400b410200073122000120e20006e
:10386800910e200030132000e656020002000000ee
:103878008f87e9000000e00002003a0017fb07000c
:10388800ffff37005031f80067ab2d0016c0b300ba
:1038980005002400d4032000a31d2000920020006e
:1038a800611a200040132000e656020002000000c2
:1038b8008f87e9000000e00002003a0007fb0700dc
:1038c800ffff3700d78a8100f6552f0085012400b5
:1038d800f40e2000c3092000720d200031072000db
:1038e8005013200096540200020000000000e0007f
:1038f80002003a00f9fa0700ffff3700378b810012
:1039080016562f008501240084072000130b200081
:10391800f2052000a1072000601320009654020041
:10392800020000000000e00002003a00ebfa070085
:10393800ffff3700378b810036562f0085012400a2
:1039480064092000230b2000d2072000b1072000c3
:103958007013200096540200020000000000e000ee
:1039680002003a00ddfa0700ffff3700d78a81001e
:1039780056562f000501240084072000e306200086
:10398800f2052000a10020008013200096540200b8
:10399800020000000000e00002003a00cffa070031
:1039a800ffff3700d78a8100a6562f0005012400a3
:1039b80064092000e3062000d2072000a1002000af
:1039c8009013200096540200020000000000e0005e
:1039d80002003a00c1fa0700ffff3700d78a8100ca
:1039e800f6562f0085012400f4052000f30a200074
:1039f80062042000b1072000a013200096540200a2
:103a0800020000000000e00002003a00b3fa0700dc
:103a1800ffff3700d78a810026572f008500240032
:103a2800b4102000f3162000920f2000a1142000eb
:103a3800b0132000464b0200020000000000e00026
:103a480002003a00a5fa0700ffff37000000060051
:103a5800b47202000000000090192000508589000f
:103a6800824c020000000000b08a81000000e000e3
:103a780002003200f00c0200000000009672020002
:103a880000000000b08a890001e62c00510098006f
:103a9800f1012000610098008000eb0021009800ef
:103aa8008080eb003100980091192000010878000f
:103ab800b08a81001100980002802f00420098000f
:103ac800e2712d007200980001089800a1a92d004c
:103ad80011089800d08a81000000e000020032003e
:103ae800f00c0200000000009672020000000000c6
:103af800d08a89000132230051009800f10120008a
:103b0800610098008080eb002100980011f02000ef
:103b18003100980001e62f0001087800d08a810062
:103b28000166200011009800416a220041009800b7
:103b3800e1712d007100980091192000010898008a
:103b480021aa2d0011089800808a81000000e00059
:103b580002003200f00c0200000000009672020021
:103b680000000000808a8900c15522005100980099
:103b78005143210061009800318c210021009800f8
:103b88008080eb003100980001e62f0001087800e2
:103b9800808a810071bb2100110098000141280032
:103ba80041009800e1712d00710098000106b000f5
:103bb8000108980061aa2d00110898005631f800f4
:103bc800004a2f00801f78008003eb0006002400c5
:103bd8008002eb00b4092000931d2000d2072000ca
:103be800111a2000f0102000ec430200020000002f
:103bf800e48757000000e00002003a0037fa0700a7
:103c0800ffff37005631f800504a2f00801f780018
:103c18008003eb00060024008002eb00e40b200088
:103c2800931d2000020a2000111a20000011200014
:103c3800ec43020002000000e48757000000e000a7
:103c480002003a0025fa0700ffff37005631f80056
:103c5800a04a2f00801f78008003eb000600240094
:103c68008002eb00240e2000931d2000420c20004f
:103c7800111a200010112000ec430200020000007d
:103c8800e48757000000e00002003a0013fa07003a
:103c9800ffff37005631f800f04a2f00801f7800e8
:103ca8008003eb00060024008002eb004410200093
:103cb800a31d2000620e2000211a200020112000e0
:103cc800ec43020002000000e48757000000e00017
:103cd80002003a0001fa0700ffff3700d78a810087
:103ce800364b2f0005012400d4032000330e20009a
:103cf80062022000c1042000301120009654020006
:103d0800020000000000e00002003a00f3f907009a
:103d1800ffff3700d78a8100564b2f00050124008a
:103d2800e40320009314200072022000510e2000aa
:103d38004011200096540200020000000000e0003c
:103d480002003a00e5f90700ffff3700d78a810033
:103d5800364c2f000501240034022000430a2000bd
:103d6800c2002000c1042000501120009654020017
:103d7800020000000000e00002003a00d7f9070046
:103d8800ffff3700d78a8100564c2f008501240099
:103d980034022000930e2000c2002000610a200097
:103da8006011200096540200020000000000e000ac
:103db80002003a00c9f90700ffff3700d78a8100df
:103dc800764c2f008501240034022000a31920001e
:103dd800c2002000911420007011200096540200a7
:103de800020000000000e00002003a00bbf90700f2
:103df800ffff3700d78a8100964c2f0085012400e9
:103e0800e4032000e318200072022000911420002f
:103e18008011200096540200020000000000e0001b
:103e280002003a00adf90700ffff3700d78a81008a
:103e3800b64c2f0085012400340220009312200084
:103e4800c2002000a10e200090112000965402000c
:103e5800020000000000e00002003a009ff907009d
:103e6800ffff3700d78a8100064d2f000501280083
:103e7800b40a2000e318200022092000d1072000fe
:103e8800a011200096540200020000000000e0008b
:103e980002003a0091f90700ffff3700d78a810036
:103ea800264d2f0005012800b40a2000d307200062
:103eb8002209200091012000b01120009654020030
:103ec800020000000000e00002003a0083f9070049
:103ed800ffff37005031f800a7aa2d0016c0b30025
:103ee800050024006403200083042000a2002000b1
:103ef800a1002000c0112000e656020002000000c8
:103f08008f87e9000000e00002003a0073f907001b
:103f1800ffff37005031f80067ab2d0016c0b30023
:103f280005002400d4032000a31d200092002000d7
:103f3800611a2000d0112000e6560200020000009d
:103f48008f87e9000000e00002003a0063f90700eb
:103f5800ffff3700d78a8100064e2f000501280091
:103f6800440c2000e3182000b20a2000d1072000ea
:103f7800e011200096540200020000000000e0005a
:103f880002003a0055f90700ffff3700d78a810081
:103f9800264e2f0005012800440c2000d3072000de
:103fa800b20a200091012000f0112000965402006e
:103fb800020000000000e00002003a0047f9070094
:103fc800ffff3700d78a8100164f2f000501280010
:103fd80024092000d3072000920720009101200027
:103fe8000012200096540200020000000000e000c9
:103ff80002003a0039f90700ffff3700d78a81002d
:10400800c64f2f000501280024092000e3182000ce
:1040180092072000d10720001012200096540200b9
:10402800020000000000e00002003a002bf907003f
:10403800ffff3700d78a8100e64f2f0005012800cf
:10404800e40d2000d3072000520c2000910120002d
:104058002012200096540200020000000000e00038
:1040680002003a001df90700ffff3700d78a8100d8
:10407800d6502f0005012800e40d2000e318200089
:10408800520c2000d1072000301220009654020064
:10409800020000000000e00002003a000ff90700eb
:1040a800ffff370000000600b472020000000000a5
:1040b8009019200050858900824c02000000000001
:1040c800b08a81000000e00002003200f00c02001b
:1040d800000000009672020000000000b08a89000b
:1040e80001e62c0051009800f101200061009800c1
:1040f8008000eb00210098008080eb0031009800e0
:104108009119200001087800b08a810011009800f8
:1041180002802f0042009800e2712d007200980082
:1041280001089800a1a92d0011089800d08a8100e3
:104138000000e00002003200f00c02000000000065
:104148009672020000000000d08a89000132230024
:1041580051009800f1012000610098008080eb0078
:104168002100980011f020003100980001e62f008e
:1041780001087800d08a81000166200011009800ab
:10418800416a220041009800e1712d0071009800f9
:10419800911920000108980021aa2d001108980003
:1041a800808a81000000e00002003200f00c02006a
:1041b800000000009672020000000000808a89005a
:1041c800c155220051009800514321006100980018
:1041d800318c2100210098008080eb00310098008c
:1041e80001e62f0001087800808a810071bb210058
:1041f800110098000141280041009800e1712d004c
:10420800710098000106b0000108980061aa2d000d
:1042180011089800308b81000000e0000200320095
:10422800f00c02000000000096720200000000007e
:10423800308b8900910120005100980052432100e1
:104248006200980002fe2f00220098000081eb0017
:10425800320098000008eb00308b810072bb21000f
:104268001200980041009800e1712d00710098003b
:104278003101200001089800e1a92d0011089800db
:104288005631f800a0342f00801f78008003eb001f
:10429800060024008002eb00d4102000a31d20009b
:1042a800020f2000411a2000e00c2000ec4302001d
:1042b80002000000e48757000000e00002003a0016
:1042c80086f80700ffff3700d78a8100e6342f0001
:1042d80085012400f4032000330e20008202200010
:1042e800c1042000f00c20009654020002000000d7
:1042f8000000e00002003a0078f80700ffff3700ee
:10430800d78a8100e6352f00050124000404200027
:104318009314200092022000510e2000000d20006e
:1043280096540200020000000000e00002003a007b
:104338006af80700ffff3700d78a8100d6362f00ba
:104348008501240034022000430a2000c200200016
:10435800c1042000100d2000965402000200000045
:104368000000e00002003a005cf80700ffff370099
:10437800d78a810036372f008501240034022000b7
:10438800b30e2000c2002000f10a2000200d2000fa
:1043980096540200020000000000e00002003a000b
:1043a8004ef80700ffff3700d78a810086372f00b5
:1043b8008501240034022000a3192000c200200037
:1043c80091142000300d20009654020002000000d5
:1043d8000000e00002003a0040f80700ffff370045
:1043e800d78a810016382f00850124000404200094
:1043f800a31920009202200051152000400d200032
:1044080096540200020000000000e00002003a009a
:1044180032f80700ffff3700d78a810076382f006f
:10442800850124003402200073132000c2002000fc
:10443800810f2000500d2000965402000200000059
:104448000000e00002003a0024f80700ffff3700f0
:104458005031f80027ac2d0016c0b3000500240029
:10446800c40320009304200002012000a1002000c2
:10447800600d2000e6560200020000008f87e90068
:104488000000e00002003a0014f80700ffff3700c0
:104498005031f80067ab2d0016c0b30005002400aa
:1044a80004042000831d2000c2002000411a2000bf
:1044b800700d2000e6560200020000008f87e90018
:1044c8000000e00002003a0004f80700ffff370090
:1044d800378b8100d6382f0085012400b4052000d1
:1044e8003304200002042000a1002000800d2000d9
:1044f80096540200020000000000e00002003a00aa
:10450800f6f70700ffff3700378b810026392f00a9
:10451800850124006407200033042000b205200030
:10452800a1002000900d2000965402000200000017
:104538000000e00002003a00e8f70700ffff37003c
:10454800378b810076392f0085012400140920005b
:104558003304200062072000a1002000a00d2000e5
:1045680096540200020000000000e00002003a0039
:10457800daf70700ffff3700378b8100c6392f00b5
:1045880085012400c40a20003304200012092000f9
:10459800a1002000b00d2000965402000200000087
:1045a8000000e00002003a00ccf70700ffff3700e8
:1045b800378b8100163a2f0085012400740c2000e7
:1045c80033042000c20a2000a1002000c00d2000f2
:1045d80096540200020000000000e00002003a00c9
:1045e800bef70700ffff3700378b8100663a2f00c0
:1045f80085012400240e200033042000720c2000c2
:10460800a1002000d00d20009654020002000000f6
:104618000000e00002003a00b0f70700ffff370093
:10462800378b8100b63a2f0085012400d40f200073
:1046380033042000220e2000a1002000e00d2000fd
:1046480096540200020000000000e00002003a0058
:10465800a2f70700ffff3700378b8100063b2f00ca
:1046680085012400b4052000c307200002042000af
:1046780031042000f00d20009654020002000000d2
:104688000000e00002003a0094f70700ffff37003f
:10469800378b8100563b2f008501240064072000da
:1046a800c3072000b205200031042000000e2000be
:1046b80096540200020000000000e00002003a00e8
:1046c80086f70700ffff3700378b8100a63b2f00d6
:1046d8008501240014092000c30720006207200078
:1046e80031042000100e2000965402000200000041
:1046f8000000e00002003a0078f70700ffff3700eb
:10470800378b8100f63b2f0085012400c40a200066
:10471800c30720001209200031042000200e2000c9
:1047280096540200020000000000e00002003a0077
:104738006af70700ffff3700378b8100463c2f00e0
:1047480085012400740c2000c3072000c20a200041
:1047580031042000300e20009654020002000000b0
:104768000000e00002003a005cf70700ffff370096
:10477800378b8100963c2f0085012400240e2000f1
:10478800c3072000720c200031042000400e2000d6
:1047980096540200020000000000e00002003a0007
:1047a8004ef70700ffff3700378b8100e63c2f00ec
:1047b80085012400d40f2000c3072000220e20000a
:1047c80031042000500e2000965402000200000020
:1047d8000000e00002003a0040f70700ffff370042
:1047e800378b8100363d2f0085012400b405200059
:1047f800530b200002042000c1072000600e200097
:1048080096540200020000000000e00002003a0096
:1048180032f70700ffff3700378b8100863d2f00f6
:104828008501240064072000530b2000b2052000f6
:10483800c1072000700e20009654020002000000fc
:104848000000e00002003a0024f70700ffff3700ed
:10485800378b8100d63d2f008501240014092000e4
:10486800530b200062072000c1072000800e2000a3
:1048780096540200020000000000e00002003a0026
:1048880016f70700ffff3700378b8100263e2f0001
:1048980085012400c40a2000530b200012092000bf
:1048a800c1072000900e200096540200020000006c
:1048b8000000e00002003a0008f70700ffff370099
:1048c800378b8100763e2f0085012400740c200070
:1048d800530b2000c20a2000c1072000a00e2000b0
:1048e80096540200020000000000e00002003a00b6
:1048f800faf60700ffff3700378b8100c63e2f000e
:1049080085012400240e2000530b2000720c200087
:10491800c1072000b00e20009654020002000000db
:104928000000e00002003a00ecf60700ffff370045
:10493800378b8100163f2f0085012400d40f2000fb
:10494800530b2000220e2000c1072000c00e2000bb
:1049580096540200020000000000e00002003a0045
:10496800def60700ffff3700378b8100663f2f0018
:1049780085012400b4052000e30e20000204200075
:10498800510b2000d00e20009654020002000000b7
:104998000000e00002003a00d0f60700ffff3700f1
:1049a800378b8100b63f2f00850124006407200063
:1049b800e30e2000b2052000510b20000300780010
:1049c80096540200020000000000e00002003a00d5
:1049d800c2f60700ffff3700378b810006402f0023
:1049e8008501240014092000e30e2000620720003e
:1049f800510b2000f00e2000965402000200000027
:104a08000000e00002003a00b4f60700ffff37009c
:104a1800378b810056402f0085012400c40a2000ee
:104a2800e30e200012092000510b2000000f200087
:104a380096540200020000000000e00002003a0064
:104a4800a6f60700ffff3700378b8100a6402f002e
:104a580085012400740c2000e30e2000c20a200007
:104a6800510b2000100f2000965402000200000095
:104a78000000e00002003a0098f60700ffff370048
:104a8800378b8100f6402f0085012400240e20007a
:104a9800e30e2000720c2000510b2000200f200094
:104aa80096540200020000000000e00002003a00f4
:104ab8008af60700ffff3700378b810046412f0039
:104ac80085012400d40f2000e30e2000220e2000d0
:104ad800510b2000300f2000965402000200000005
:104ae8000000e00002003a007cf60700ffff3700f4
:104af800378b810096412f0085012400b4052000e2
:104b08007312200002042000e10e2000400f200054
:104b180096540200020000000000e00002003a0083
:104b28006ef60700ffff3700378b8100e6412f0044
:104b3800850124006407200073122000b2052000bc
:104b4800e10e2000500f20009654020002000000e1
:104b58000000e00002003a0060f60700ffff37009f
:104b6800378b810036422f0085012400140920006c
:104b78007312200062072000e10e2000600f200061
:104b880096540200020000000000e00002003a0013
:104b980052f60700ffff3700378b810086422f004f
:104ba80085012400c40a2000731220001209200085
:104bb800e10e2000700f2000965402000200000051
:104bc8000000e00002003a0044f60700ffff37004b
:104bd800378b8100d6422f0085012400740c2000f9
:104be80073122000c20a2000e10e2000800f20006e
:104bf80096540200020000000000e00002003a00a3
:104c080036f60700ffff3700378b810026432f0059
:104c180085012400240e200073122000720c20004d
:104c2800e10e2000900f20009654020002000000c0
:104c38000000e00002003a0028f60700ffff3700f6
:104c4800378b810076432f0085012400d40f200084
:104c580073122000220e2000e10e2000a00f200079
:104c680096540200020000000000e00002003a0032
:104c78001af60700ffff3700378b8100c6432f0065
:104c880085012400b405200003162000020420003a
:104c980071122000b00f200096540200020000009c
:104ca8000000e00002003a000cf60700ffff3700a2
:104cb800378b810016442f008501240064072000eb
:104cc80013162000b205200081122000c00f20001a
:104cd80096540200020000000000e00002003a00c2
:104ce800fef50700ffff3700378b810066442f0071
:104cf80085012400140920001316200062072000f3
:104d080081122000d00f20009654020002000000fb
:104d18000000e00002003a00f0f50700ffff37004e
:104d2800378b8100b6442f0085012400c40a200077
:104d3800131620001209200081122000e00f200025
:104d480096540200020000000000e00002003a0051
:104d5800e2f50700ffff3700378b810006452f007b
:104d680085012400740c200013162000c20a2000bc
:104d780081122000f00f200096540200020000006b
:104d88000000e00002003a00d4f50700ffff3700fa
:104d9800378b810056452f0085012400240e200002
:104da80003162000720c2000711220000010200051
:104db80096540200020000000000e00002003a00e1
:104dc800c6f50700ffff3700378b8100a6452f0087
:104dd80085012400d40f200013162000220e200085
:104de80081122000101020009654020002000000da
:104df8000000e00002003a00b8f50700ffff3700a6
:104e0800378b8100f6452f0085012400b40520006a
:104e18009319200002042000011620002010200011
:104e280096540200020000000000e00002003a0070
:104e3800aaf50700ffff3700378b810046462f0091
:104e4800850124006407200093192000b205200082
:104e580001162000301020009654020002000000c5
:104e68000000e00002003a009cf50700ffff370051
:104e7800378b810096462f008501240014092000f5
:104e8800a3192000620720001116200040102000fe
:104e980096540200020000000000e00002003a0000
:104ea8008ef50700ffff3700378b8100e6462f009d
:104eb80085012400c40a2000a3192000120920003b
:104ec8001116200050102000965402000200000025
:104ed8000000e00002003a0080f50700ffff3700fd
:104ee800378b810036472f0085012400740c200081
:104ef80093192000c20a200001162000601020002b
:104f080096540200020000000000e00002003a008f
:104f180072f50700ffff3700378b810086472f00a7
:104f280085012400240e200093192000720c200013
:104f380001162000701020009654020002000000a4
:104f48000000e00002003a0064f50700ffff3700a8
:104f5800378b8100d6472f0085012400d40f20000d
:104f6800a3192000220e2000111620008010200016
:104f780096540200020000000000e00002003a001f
:104f880056f50700ffff3700378b810026482f00b2
:104f980085012400b4052000231d20000204200000
:104fa8009119200090102000965402000200000081
:104fb8000000e00002003a0048f50700ffff370054
:104fc800378b810076482f00850124006407200074
:104fd800231d2000b205200091192000a0102000f8
:104fe80096540200020000000000e00002003a00af
:104ff8003af50700ffff3700378b8100c6482f00be
:105008008501240014092000231d200062072000c8
:1050180091192000b01020009654020002000000f0
:105028000000e00002003a002cf50700ffff3700ff
:10503800378b810016492f0085012400c40a2000ff
:10504800231d20001209200091192000c010200003
:1050580096540200020000000000e00002003a003e
:105068001ef50700ffff3700378b810066492f00c8
:1050780085012400740c2000231d2000c20a200092
:1050880091192000d0102000965402000200000060
:105098000000e00002003a0010f50700ffff3700ab
:1050a800378b8100b6492f0085012400240e20008b
:1050b800231d2000720c200091192000e010200010
:1050c80096540200020000000000e00002003a00ce
:1050d80002f50700ffff370000000600b472020067
:1050e800000000009019200050858900824c0200c1
:1050f80000000000b08a81000000e00002003200d9
:10510800f00c02000000000096720200000000008f
:10511800b08a890001e62c0051009800f1012000b6
:10512800610098008000eb00210098008080eb006f
:10513800310098009119200001087800b08a810098
:105148001100980002802f0042009800e2712d00a3
:105158007200980001089800a1a92d001108980074
:10516800d08a81000000e00002003200f00c02004a
:10517800000000009672020000000000d08a89003a
:105188000132230051009800f101200061009800cd
:105198008080eb002100980011f020003100980079
:1051a80001e62f0001087800d08a810001662000fe
:1051b80011009800416a220041009800e1712d0019
:1051c80071009800911920000108980021aa2d006b
:1051d80011089800e08a81000000e0000200320017
:1051e800f00c0200000000009672020000000000af
:1051f800e08a89008080eb0051009800524321002a
:105208006200980021009800310098000108780099
:10521800e08a810071bb210011009800014128003b
:1052280041009800e1712d0071009800911920004b
:105238000108980061aa2d0011089800808a810051
:105248000000e00002003200f00c02000000000044
:105258009672020000000000808a8900c155220071
:10526800510098005143210061009800318c2100c1
:10527800210098008080eb003100980001e62f00a3
:1052880001087800808a810071bb21001100980014
:105298000141280041009800e1712d00710098003b
:1052a8000106b0000108980061aa2d0011089800b5
:1052b8005631f800e02b2f00801f78008003eb00a8
:1052c800060024008002eb00440e2000831d20000d
:1052d800720c2000211a2000800b2000ec430200f1
:1052e80002000000e48757000000e00002003a00d6
:1052f8007af40700ffff37005631f800202c2f0002
:10530800801f78008003eb00060024008002eb0079
:1053180024102000831d2000520e2000211a200096
:10532800900b2000ec43020002000000e4875700c5
:105338000000e00002003a0068f40700ffff3700b1
:10534800d78a8100662c2f008501240004042000e0
:10535800030f200092022000c1042000a00b2000af
:1053680096540200020000000000e00002003a002b
:105378005af40700ffff3700d78a8100862c2f00d8
:105388000501240004042000531520009202200087
